:100000000C94B2000C94DA000C94DA000C94D50530
:100010000C94D5050C94D5050C94DA000C94DA00F8
:100020000C94DA000C94DA000C94DA000C94DA00E8
:100030000C94DA000C94DA000C94DA000C94DA00D8
:100040000C948B050C94DA000C94C7040C94A10456
:100050000C94DA000C94DA000C94DA000C94DA00B8
:100060000C94F4070C94DA00DE0DF00DF30DFA0D8C
:10007000010E2F0E360E430E500E5C0E5C0E5C0E03
:100080005C0E5C0E5C0E5C0E5C0E5C0E5C0E5C0E20
:100090005C0E5C0E5C0E5C0E5C0E5C0E5C0E5C0E10
:1000A0005C0E5C0E5C0E5C0EDE0DEB0DF00DF30DC8
:1000B000FA0D010E080E150E220E084AD73B3BCE54
:1000C000016E84BCBFFDC12F3D6C74319ABD568357
:1000D0003DDA3D00C77F11BED9E4BB4C3E916BAA0F
:1000E000AABE000000803F05A84CCDB2D44EB9385E
:1000F00036A9020C50B9918688083CA6AAAA2ABE45
:10010000000000803F000000000800020100000322
:1001100004070000000000000000000000002500AF
:1001200028002B0000000000240027002A00000007
:10013000000023002600290004040404040404042D
:100140000202020202020303030303030102040882
:100150001020408001020408102001020408102031
:100160009214881411241FBECFEFD8E0DEBFCDBF9C
:1001700011E0A0E0B1E0E6EEF5E302C005900D92DB
:10018000A23FB107D9F724E0A2EFB1E001C01D9270
:10019000A43AB207E1F710E0C1EBD0E004C0219728
:1001A000FE010E94A716C03BD107C9F70E94FF09B4
:1001B0000C94E61A0C940000CF92DF92EF92FF921B
:1001C0000F931F93CF93DF936C017A018B01C0E0F3
:1001D000D0E0CE15DF0589F0D8016D918D01D601F3
:1001E000ED91FC910190F081E02DC6010995892BDC
:1001F00011F47E0102C02196ECCFC701DF91CF91AF
:100200001F910F91FF90EF90DF90CF900895FC0128
:10021000918D828D981761F0828DDF01A80FB11D3D
:100220005D968C91928D9F5F9F73928F90E0089561
:100230008FEF9FEF0895FC01918D828D981731F01B
:10024000828DE80FF11D858D90E008958FEF9FEF6F
:100250000895FC01918D228D892F90E0805C9F4F45
:10026000821B91098F739927089583E293E00E947E
:10027000290121E0892B09F420E0822F0895FC0157
:10028000848DDF01A80FB11DA35ABF4F2C91848D1F
:1002900090E001968F739927848FA689B7892C9354
:1002A000A089B1898C9180648C93938D848D9813EF
:1002B00006C00288F389E02D80818F7D80830895B8
:1002C000EF92FF920F931F93CF93DF93EC0181E0A6
:1002D000888F9B8D8C8D981305C0E889F989808162
:1002E00085FD24C0F62E0B8D10E00F5F1F4F0F739E
:1002F0001127E02E8C8DE8120CC00FB607FCFACF48
:10030000E889F989808185FFF5CFCE010E943F0100
:10031000F1CF8B8DFE01E80FF11DE35AFF4FF08204
:100320000B8FEA89FB898081806207C0EE89FF8993
:100330006083E889F98980818064808381E090E02E
:10034000DF91CF911F910F91FF90EF900895CF9380
:10035000DF93EC01888D8823C9F0EA89FB898081CD
:1003600085FD05C0A889B9898C9186FD0FC00FB69F
:1003700007FCF5CF808185FFF2CFA889B9898C91E0
:1003800085FFEDCFCE010E943F01E7CFDF91CF91F6
:10039000089580E090E0892B29F00E9435018111B9
:1003A0000C94000008953FB7F89480911F0390913A
:1003B0002003A0912103B091220326B5A89B05C07C
:1003C0002F3F19F00196A11DB11D3FBFBA2FA92FD4
:1003D000982F8827820F911DA11DB11DBC01CD0151
:1003E00042E0660F771F881F991F4A95D1F708953D
:1003F0002091FB013091FC012817390771F490918D
:10040000F9018091FA01981741F0E091F901F0E0CB
:10041000E652FD4F808190E008958FEF9FEF0895A1
:1004200008951F93CF93DF93DC015C962D913C914F
:100430005D972115310539F481E090E013969C9386
:100440008E9312973DC05196ED91FC915297509624
:100450009C915097892F80951FB75E964C915E971F
:1004600041FB772770F941FD6095F894408177232F
:1004700011F0492B01C048234083E9012197F1F78E
:1004800048E0508160FF02C0592B01C058235083BF
:10049000E9012197F1F76695415099F7772321F00B
:1004A00090818923808303C08081982B90831FBF14
:1004B0005C968D919C915D970197F1F721E030E07A
:1004C000C901DF91CF911F9108952091FB013091D7
:1004D000FC012817390771F48091FA012091F90184
:1004E00090E0805C9F4F821B910960E470E00E9465
:1004F0007116089580E090E008952091FB013091FD
:10050000FC0128173907B9F49091F9018091FA019B
:10051000981789F0E091F901F0E0E652FD4F8081F3
:100520002091F90130E02F5F3F4F2F733327209345
:10053000F90190E008958FEF9FEF089585ED809386
:10054000BC008091BC0084FDFCCF1092F4010895A2
:1005500040916F02262F30E0240F311D21323105EA
:10056000DCF42091F4012430C9F4FC0180E090E037
:10057000861758F430916F022191DC01A35BBD4FC7
:10058000A30FB11D2C930196F3CF80916F02680FDA
:1005900060936F0280E0089581E0089582E00895FD
:1005A000089581E090E03091F8012091F701321731
:1005B00010F480E090E091958195910908958091E3
:1005C000F8019091F701891730F48F5F8093F8015B
:1005D00080E090E008958FEF9FEF08958091F701FC
:1005E00090E02091F801821B91090895CF92DF924B
:1005F000EF92FF920F931F93CF93DF937C01262FEF
:10060000972F8A018091B802882391F0C62FD72FA7
:100610006E01C40ED51ECC15DD0571F06991D701B0
:10062000ED91FC910190F081E02DC7010995F3CF88
:10063000642F822F0E94A802C801DF91CF911F91E1
:100640000F91FF90EF90DF90CF900895CF93DF93BD
:100650001F92CDB7DEB769832091B8022223D1F073
:100660002091F501203240F021E030E0FC0133839D
:10067000228380E090E015C08091F601E82FF0E041
:10068000E754FD4F998190838F5F8093F6018093AB
:10069000F50105C061E0CE0101960E94A80281E04B
:1006A00090E00F90DF91CF9108950E94861ADC01AF
:1006B000ED91FC910190F081E02D09946115710597
:1006C00079F0FB0101900020E9F73197AF01461B5B
:1006D000570BDC01ED91FC910280F381E02D099430
:1006E00080E090E008954F925F926F927F92EF9238
:1006F000FF920F931F93CF93DF93CDB7DEB7A197F0
:100700000FB6F894DEBF0FBECDBF7C01FA01CB015E
:1007100019A2223008F42AE08E010F5D1F4F422EED
:10072000512C612C712CBF01A30192010E948516EE
:10073000F901CA01015011096A3014F4605D01C069
:10074000695CD8016C93232B242B252B61F7B8010E
:10075000C7010E945E03A1960FB6F894DEBF0FBEDC
:10076000CDBFDF91CF911F910F91FF90EF907F90C0
:100770006F905F904F9008954F925F926F927F922B
:100780008F929F92AF92BF92CF92DF92EF92FF92A1
:10079000CF93DF93EC016A017B01B22E9A01AB018A
:1007A000C701B6010E94581A882319F063EE71E060
:1007B00027C026013701E89477F82FEF3FEF4FE786
:1007C0005FE7C301B2010E94581A81110DC02FEFDB
:1007D0003FEF4FE75FE7C301B2010E94C21718164F
:1007E0001CF467EE71E00CC02FEF3FEF4FE75FE4C2
:1007F000C701B6010E948C1918169CF46BEE71E0CB
:10080000CE01DF91CF91FF90EF90DF90CF90BF901E
:10081000AF909F908F907F906F905F904F900C94CF
:100820005E032FEF3FEF4FE75FECC701B6010E9479
:10083000C21787FDE3CF20E030E0A901C701B60170
:100840000E94C21787FF0AC06DE2CE010E945703C3
:100850004C01F7FAF094F7F8F09402C0812C912C37
:10086000A12C60E070E080E09FE3AB1440F420E056
:1008700030E040E251E40E94CC17A394F6CF9B01F4
:10088000AC01C701B6010E94E4162B013C010E9495
:1008900045186B017C010E9474189B01AC01C301D7
:1008A000B2010E94E3162B013C012AE0B701A60128
:1008B000CE010E9473037C01E80CF91CBB2039F0C7
:1008C0006FEE71E0CE010E945E03E80EF91EDB2C94
:1008D000DD2029F120E030E040E251E4C301B20123
:1008E0000E9499192B013C010E9445184B01A12C33
:1008F000B12C2AE0B501A401CE010E947303E80ED9
:10090000F91EC501B4010E9474189B01AC01C3011A
:10091000B2010E94E3162B013C01DA94D9CFC70142
:10092000DF91CF91FF90EF90DF90CF90BF90AF908D
:100930009F908F907F906F905F904F9008950C9450
:100940005E031F920F920FB60F9211242F933F93C5
:100950004F935F936F937F938F939F93AF93BF93C7
:10096000EF93FF9383E293E00E943F01FF91EF91A9
:10097000BF91AF919F918F917F916F915F914F91B7
:100980003F912F910F900FBE0F901F9018951F92BF
:100990000F920FB60F9211242F938F939F93EF9383
:1009A000FF93E0913303F09134038081E0913903A8
:1009B000F0913A0382FD12C0908180913C038F5FD9
:1009C0008F7320913D03821751F0E0913C03F0E0DA
:1009D000ED5DFC4F958F80933C0301C08081FF91BA
:1009E000EF919F918F912F910F900FBE0F901F90BD
:1009F000189590E0FC01EA5FFE4F3491FC01E45B46
:100A0000FE4F2491FC01E85CFE4FE491EE2309F4D3
:100A10003BC0332339F1333091F038F43130A9F051
:100A2000323001F584B58F7D12C0373091F0383007
:100A3000A1F03430B9F4809180008F7D03C08091A3
:100A400080008F77809380000DC084B58F7784BD40
:100A500009C08091B0008F7703C08091B0008F7D76
:100A60008093B000F0E0EE0FFF1FE65EFE4FA59111
:100A7000B4918FB7F894EC91611103C020952E23A7
:100A800001C02E2B2C938FBF08958F929F92AF920F
:100A9000BF92CF92DF92EF92FF926B017C010E9496
:100AA000D3014B015C01C114D104E104F104F1F064
:100AB0000E94D301DC01CB0188199909AA09BB095D
:100AC000883E9340A105B10570F321E0C21AD10818
:100AD000E108F10888EE880E83E0981EA11CB11C85
:100AE000C114D104E104F10419F7DDCFFF90EF90B8
:100AF000DF90CF90BF90AF909F908F9008952FB7C9
:100B0000F89460911B0370911C0380911D039091D8
:100B10001E032FBF08951F920F920FB60F9211243C
:100B20002F933F938F939F93AF93BF9380911B031A
:100B300090911C03A0911D03B0911E0330911A03E4
:100B400023E0230F2D3720F40196A11DB11D05C010
:100B500026E8230F0296A11DB11D20931A0380934E
:100B60001B0390931C03A0931D03B0931E0380915D
:100B70001F0390912003A0912103B09122030196BD
:100B8000A11DB11D80931F0390932003A093210307
:100B9000B0932203BF91AF919F918F913F912F917D
:100BA0000F900FBE0F901F9018951F920F920FB6C7
:100BB0000F9211242F933F934F935F936F937F93E3
:100BC0008F939F93AF93BF93EF93FF93E091FB01BC
:100BD000F091FC01309709F451C0968DA685B78538
:100BE000858591FF04C09C91892329F447C09C917D
:100BF000892309F043C0A389B4899C918589809594
:100C000089238C93868997890197F1F7608D718D7F
:100C1000A685B785558538E020E0CB010197F1F72F
:100C2000822F90E095958795282F4C91452309F0C8
:100C30002068315091F7868D81FD20958091FA01D1
:100C400090E001968F7399273091F901381749F098
:100C5000A091FA01B0E0A652BD4F2C938093FA0107
:100C600003C0868D8160868F828D938D0197F1F709
:100C7000A389B4899C918589892B8C93FF91EF91ED
:100C8000BF91AF919F918F917F916F915F914F91A4
:100C90003F912F910F900FBE0F901F901895E091EC
:100CA000FB01F091FC01E817F90769F4A389B48905
:100CB0009C918589809589238C931092FC011092D8
:100CC000FB0181E0089580E00895CF93DF93EC016C
:100CD0008A859B85AC85BD858E839F83A887B987D0
:100CE0000E947F056A837B838C839D8381E0898357
:100CF0008883DF91CF9108952F923F924F925F9218
:100D00006F927F928F929F92AF92BF92CF92DF921B
:100D1000EF92FF920F931F93CF93DF93D82FC92F9A
:100D20008B010E94AA1A24E630E040E050E00E94C5
:100D3000851649015A019B01AC0160E876E988E912
:100D400090E00E9461166B017C01F8019182808223
:100D5000ED2FFC2F2191822F022E000C990BC097B2
:100D60000A97C0F32E3239F51F0180E8882E86E9F4
:100D7000982E88E9A82EB12C9AE0492E512C612C8E
:100D8000712CF101C1911F010C2E000CDD0BE097BD
:100D9000CA30D10580F4C501B401A30192010E94BB
:100DA000851649015A01DE010E94B816C60ED71EEB
:100DB000E81EF91EE6CFA5E0B0E0A70196010E946B
:100DC000AD166F5F7F4F8F4F9F4F23E030E040E0C5
:100DD00050E00E948516F8012283338344835583B3
:100DE0001682DF91CF911F910F91FF90EF90DF90CE
:100DF000CF90BF90AF909F908F907F906F905F90BB
:100E00004F903F902F900895FF920F931F93CF9391
:100E1000DF93EC01FF24F39488818D3211F0F12CE3
:100E200001C02196CE010E94AA1A9B01AC01A4E642
:100E3000B0E00E94AD16FE014991242F042E000C53
:100E4000330B205331092A303105A8F34E3241F5D6
:100E50002181022E000C330B205331092A30310539
:100E6000F8F44AE0429F8001439F100D1124012EA7
:100E7000000C220B330B600F711F821F931F028126
:100E8000002E000C110B005311090A30110540F41B
:100E9000012E000C220B330B600F711F821F931F5A
:100EA000FF2039F090958095709561957F4F8F4F19
:100EB0009F4FDF91CF911F910F91FF900895CF9396
:100EC000FC01C48121E02093B802C093D9021092A2
:100ED000F6011092F5018385682B80EC93E00E9467
:100EE00026038091F501813208F046C09091F4010B
:100EF0009111FCCF92E09093F40191E09093F30173
:100F00009FEF9093B7021092B6028093B502A9EBBF
:100F1000B2E025E932E0F9019E2F921B981718F4F0
:100F20009D919193F9CF1092940280919402CC0FED
:100F3000C82BC09394028091F201813061F4109229
:100F4000F201809194028093BB008091BC0083FDEC
:100F5000F8CF85EC01C085EE8093BC008091F40150
:100F60008230E1F38091B7028F3F31F08091B70278
:100F7000803211F08091B7021092F6011092F501C3
:100F80001092B802CF9108950F931F93CF938C01C5
:100F9000C62F0E945F076C2F6460C8010E945F0724
:100FA0006C2F6B7FC8010E945F0783EC90E0019774
:100FB000F1F7CF911F910F9108950F931F93CF9346
:100FC0008C01C62F607F61600E94C40780E1C89FCA
:100FD000B00111246160C8010E94C40781E090E063
:100FE000CF911F910F9108951F920F920FB60F92FC
:100FF00011242F933F934F935F936F937F938F931E
:101000009F93AF93BF93EF93FF938091B900887F35
:10101000803609F49CC068F5883209F45BC090F40E
:10102000803109F454C038F4882309F4F6C08830BC
:1010300009F44DC0F6C0883109F44CC0803209F47F
:101040005DC0EFC0803409F468C048F4803309F40F
:1010500055C0883309F0E5C08093B702D8C0803509
:1010600009F44FC0883509F45DC0883409F0D9C04F
:10107000D6C0883909F4C7C0A8F4883709F467C016
:1010800038F4883609F463C0803709F460C0C9C0F9
:10109000883809F4B8C0803909F45FC0803809F095
:1010A000C0C05BC0803B09F486C038F4803A09F4C4
:1010B00066C0883A09F47FC0B4C0803C09F4A7C078
:1010C000883C09F4A4C0883B09F48AC0AAC0809176
:1010D000940210C09091B6028091B502981770F5F5
:1010E000E091B60281E08E0F8093B602F0E0EB56FD
:1010F000FD4F80818093BB0085EC86C08093B70252
:101100008EC0E091B60281E08E0F8093B60280918E
:10111000BB00F0E0EB56FD4F80839091B6028091CA
:10112000B5026EC0E091B60281E08E0F8093B602E8
:101130008091BB00F0E0EB56FD4F80838091F3017E
:1011400081116DC081E08093F20184EA61C083E087
:101150008093F40110929302CFCF8091930280325A
:1011600008F051C0E091930281E08E0F80939302CA
:101170008091BB00F0E0ED58FD4F8083BDCF85EC42
:101180008093BC001092F40180919302803230F47D
:10119000E0919302F0E0ED58FD4F108260919302D0
:1011A00070E0E0917102F091720283E792E009959C
:1011B0001092930236C084E08093F4011092700282
:1011C00010926F02E0916D02F0916E02099580918C
:1011D0006F02811105C081E080936F0210924D0271
:1011E000E091700281E08E0F80937002F0E0E35B8B
:1011F000FD4F80818093BB009091700280916F02BF
:10120000981708F479CF85E88093BC000AC085EC74
:101210008093BC001092F40104C01092B7020E94A7
:101220009E02FF91EF91BF91AF919F918F917F911E
:101230006F915F914F913F912F910F900FBE0F9043
:101240001F901895CF93C82F682F607F88E994E08E
:101250000E94C40780E1C89FB001112488E994E08E
:10126000CF910C94C40781E00E9422098BE39FE197
:101270000197F1F70895CF93DF93CDB7DEB72897A5
:101280000FB6F894DEBF0FBECDBF98E0EDE0F1E001
:10129000DE01119601900D929A95E1F79091A004CC
:1012A000961710F46FEF690FFE013196E60FF11DEE
:1012B000E60FF11D9081890F806828960FB6F8948B
:1012C000DEBF0FBECDBFDF91CF910C94220982E02B
:1012D0000E9422098BE39FE10197F1F70895CF92D5
:1012E000DF92EF92FF920F931F93CF93DF9377FFDD
:1012F0001DC06A017B01EC016DE20E9457038C0165
:1013000044275527BA014C195D096E097F092AE067
:10131000CE010E947303800F911FDF91CF911F9127
:101320000F91FF90EF90DF90CF9008952AE0DF912A
:10133000CF911F910F91FF90EF90DF90CF900C9481
:101340007303CF92DF92EF92FF921092EC036091C1
:10135000F4037091F50380E090E00E9474186B0133
:101360007C016091F6037091F7038091F8039091EE
:10137000F9030E94741828E23BE64EE65EE40E9400
:10138000CC179B01AC01C701B6010E94E416209165
:10139000FA0321119058FF90EF90DF90CF900895BD
:1013A000CF92DF92EF92FF921092EC036091ED03E7
:1013B0007091EE0380E090E00E9474186B017C0154
:1013C0006091EF037091F0038091F1039091F2032B
:1013D0000E94741828E23BE64EE65EE40E94CC17B9
:1013E0009B01AC01C701B6010E94E4162091F303F2
:1013F00021119058FF90EF90DF90CF900895CF93F8
:10140000DF93CDB7DEB764970FB6F894DEBF0FBE9B
:10141000CDBF789484B5826084BD84B5816084BD7D
:1014200085B5826085BD85B5816085BD80916E0082
:10143000816080936E0010928100809181008260B3
:1014400080938100809181008160809381008091F0
:1014500080008160809380008091B10084608093DF
:10146000B1008091B00081608093B00080917A00DB
:10147000846080937A0080917A00826080937A0001
:1014800080917A00816080937A0080917A008068F0
:1014900080937A001092C1001092F8011092F70127
:1014A0001092F6011092F5011092F40181E0809300
:1014B000F3011092F20161E082E10E94F90461E01F
:1014C00083E10E94F9048091B9008E7F8093B90076
:1014D0008091B9008D7F8093B90088E48093B80033
:1014E00085E48093BC0010929D048091A204823018
:1014F00018F098E090939D048093A00462E370E05C
:1015000080E090E00E9445056091A30488E994E0A2
:101510000E945F0768EE73E080E090E00E9445055E
:1015200060E388E994E00E94C4070BE416E4C80174
:101530000197F1F760E388E994E00E94C407C801CD
:101540000197F1F760E388E994E00E94C40783E51E
:1015500092E00197F1F760E288E994E00E94C40705
:1015600080919D0480620E94220984E080939E0401
:101570008CE00E9422090E94330982E080939F043C
:1015800086E00E9422090E94670988E08093A304F4
:1015900060E088E994E00E945F0780E40E942209ED
:1015A00000E011E0F80161918F0188E994E00E9468
:1015B000DD07F1E008301F07A9F70E9467096DE415
:1015C00071E088E994E00E949F0461E083E00E945A
:1015D0003B096EE571E088E994E00E949F0468EBA6
:1015E0007BE080E090E00E944505E0913303F091BC
:1015F000340382E08083E0912F03F0913003108266
:10160000E0913103F091320380E1808310923B033B
:10161000E0913703F091380386E08083E091350351
:10162000F0913603808180618083E0913503F091F1
:101630003603808188608083E0913503F091360322
:10164000808180688083E0913503F091360380814A
:101650008F7D80830E9433091092E7031092E60386
:101660001092E5031092E4031092E3031092E20358
:1016700082E490E09093E9038093E8039091D8038B
:10168000963108F057C02FE030E03093E303209309
:10169000E20320E430E03093E5032093E40327E203
:1016A00030E03093E7032093E60320916800983000
:1016B00050F031E09E3008F430E081E001C0880F46
:1016C0003A95EAF701C084E0822B80936800983055
:1016D00038F09E3040F0963148F020E030E008C00D
:1016E0002DE630E005C02BE630E002C02CE630E00D
:1016F0003093E0032093DF03983030F481E001C0A1
:10170000880F9A95EAF70EC0292F30E09E3018F422
:101710002850310902C02E50310981E001C0880FE4
:101720002A95EAF78093E1038091E8039091E90319
:101730000197F1F78091E6039091E703892B21F15E
:101740008091FB019091FC0123E08C3C9207E1F039
:10175000009711F00E944F068091EA038E7F8093DC
:10176000EA031092FA011092F9018CEC93E0909345
:10177000FC018093FB01E091DF03F091E003908195
:101780008091E103892B80830E947F056093FD0196
:101790007093FE018093FF019093000268EE73E066
:1017A00080E090E00E94450501E087E0282E92E06D
:1017B000392E8CEC93E00E9465021816190614F07D
:1017C0000C9476148CEC93E00E947D02182F80918B
:1017D000880490918904A0918A04B0918B040196A9
:1017E000A11DB11D8093880490938904A0938A045D
:1017F000B0938B04143209F49FC2E0918204153235
:1018000034F41A3071F01D3009F0A3C20AC01A3244
:1018100041F01C3209F09DC280916F0481278093B2
:101820006F04EF3008F076C1F0E0EF58FB4F108204
:1018300080917004882309F46FC1209171043FEBFB
:10184000320F822F022E000C990B363010F4C797FE
:1018500007C02156263018F48755910901C0C0975A
:10186000282F2295207F309172044FEB430F832F56
:10187000032E000C990B463010F4C79707C0315661
:10188000363018F48755910901C0C097820F9091A6
:101890006F0489132CC18091940490919504A091B8
:1018A0009604B09197040196A11DB11D80939404F4
:1018B00090939504A0939604B09397048091830429
:1018C000882399F080918C0490918D04A0918E04CE
:1018D000B0918F040196A11DB11D80938C0490934B
:1018E0008D04A0938E04B0938F04E0908004EE20CA
:1018F00009F46BC031E0E312D3C0809113049091DE
:101900001404A0911504B091160480930F049093D1
:101910001004A0931104B09312040E947F056093F9
:101920001704709318048093190490931A04E0929A
:101930000E04E0920D048091210490912204A09164
:101940002304B091240480931D0490931E04A0935B
:101950001F04B09320040E947F05609325047093B8
:1019600026048093270490932804E0921C04E092BC
:101970001B0480918304882309F492C0EBEFF3E009
:10198000ADEEB3E0822D01900D928A95E1F7E2E091
:10199000F4E0A4EFB3E0822D01900D928A95E1F777
:1019A0000E947F056093090470930A0480930B04DE
:1019B00090930C04E092EC03E092EB0389E294E054
:1019C0000E94650687E394E069C0809121049091AC
:1019D0002204A0912304B091240480931D049093C9
:1019E0001E04A0931F04B09320040E947F056093FF
:1019F000250470932604809327049093280441E0E3
:101A000040931C0440931B0480918304882329F194
:101A1000EBEFF3E0ADEEB3E0822D01900D928A95ED
:101A2000E1F7E2E0F4E0A4EFB3E0822D01900D9243
:101A30008A95E1F70E947F056093090470930A0478
:101A400080930B0490930C0451E05093EC0350935B
:101A5000EB0385E494E00E94650680915D0490911B
:101A60005E04A0915F04B091600480935904909348
:101A70005A04A0935B04B0935C040E947F056093BA
:101A8000550470935604809357049093580481E052
:101A9000809354048093530481E694E00E94650689
:101AA000C0908604D0908704C114D10409F432C1D7
:101AB000E0918604F091870466A177A1F60186A1E2
:101AC00097A10E948B1A892B09F024C1B601C60187
:101AD00040960E94941A0E947F05F60160A371A3AC
:101AE00082A393A305A304A3C2A4D3A4DDCF8091B2
:101AF000900490919104A0919204B0919304019666
:101B0000A11DB11D8093900490939104A093920421
:101B1000B093930480E0FFC090918104911136C08E
:101B20006AE671E081E794E00E948B1A892B21F428
:101B3000F1E0F09380040DC060E771E081E794E08C
:101B40000E948B1A892B19F41092800402C03092E3
:101B500080048091840490918504909387048093FD
:101B60008604C0908604D0908704C114D10491F2F9
:101B7000F601A6A0B7A061E774E0C5010E948B1A28
:101B800097FFB8C6F60182A593A5E7CFE091800440
:101B9000E23009F491C080917104882309F48CC06B
:101BA00020E2E29FF0011124E92B3197E932F1059F
:101BB00008F082C0EC5CFF4F0C94A71681E794E01C
:101BC0000E940407609321047093220480932304ED
:101BD0009093240471C091E0813409F043C043C064
:101BE0006BEF73E009C091E0833509F090E09093CA
:101BF000010462C062E074E081E794E00E947C0628
:101C00005BC091E0873509F090E09093080454C0E0
:101C100081E794E00E9404076093330470933404D6
:101C2000809335049093360447C081E794E00E9486
:101C3000040760934104709342048093430490939B
:101C400044043AC081E794E00E94AA1A6093130406
:101C50007093140480931504909316042DC091E0A2
:101C600081330CF490E09093830426C081E794E0E4
:101C70000E94AA1A60935D0470935E0480935F04CF
:101C80009093600419C081E794E00E940407609378
:101C90006B0470936C0480936D0490936E040CC07D
:101CA00081E794E00E94040760934F04709350040E
:101CB0008093510490935204C0908604D09087047E
:101CC000C114D10409F426CFE0918604F091870471
:101CD00066A177A1F60186A197A10E948B1A892B94
:101CE00009F018CFF60120A531A58091810490E07C
:101CF000821793070CF40ECF2817390739F440E107
:101D000050E061E774E0C6010E949B1AF601C2A48C
:101D1000D3A4D6CF81E0909181049F5F90938104FA
:101D20001092820491E01A3209F090E090937004CE
:101D3000882309F43ECD22C01092820410928104BF
:101D400010926F04309280041092700410928304F9
:101D500030CDEE3040F481E08E0F80938204F0E0CD
:101D6000EF58FB4F108380917004811122CD809138
:101D70006F04F12EF826F0926F041BCD8091EB03D7
:101D8000882309F48AC580912A048823D1F10E940E
:101D90007F05C0904902D0904A02E0904B02F0903B
:101DA0004C02DC01CB018C199D09AE09BF0980935F
:101DB000450290934602A0934702B09348020E94C6
:101DC0007F056093490270934A0280934B0290937F
:101DD0004C0266E771E083E293E00E949F04409129
:101DE000450250914602609147027091480283E299
:101DF00093E00E946F0969EA71E083E293E00E9438
:101E00005E0320E030E0A90160914102709142023E
:101E100080914302909144020E94C217882379F076
:101E200020E030E0A90160913D0270913E02809176
:101E30003F02909140020E94C217811125C00E946A
:101E4000330960E871E083E293E00E949F040E94FE
:101E5000D0096093410270934202809343029093B1
:101E600044020E94A10960933D0270933E02809358
:101E70003F0290934002F1E0F0930C01F0930B01CC
:101E8000F0930A01F093090120913D0230913E0246
:101E900040913F0250914002809041029090420256
:101EA000A0904302B0904402298B3A8B4B8B5C8B01
:101EB0000E94A1092B013C010E94D0096B017C0109
:101EC00029893A894B895C89C301B2010E94E316D2
:101ED00025E33AEF4EE85CE30E9499192B013C019F
:101EE0000E94061A6D877E878F87988BC301B20187
:101EF0000E94C71769837A838B839C8325E33AEF1B
:101F00004EE85CE3C701B6010E9499196B017C01A0
:101F100025E33AEF4EE85CE3C501B4010E9499194C
:101F20002B013C01C701B6010E94061A4B015C015E
:101F3000C701B6010E94C7176D837E838F83988780
:101F4000C301B2010E94061A69877A878B879C8732
:101F5000C301B2010E94C7176B017C0129853A8534
:101F60004B855C856D817E818F8198850E94991952
:101F70002B013C01A7019601C501B4010E949919EA
:101F800029813A814B815C810E9499199B01AC01A6
:101F9000C301B2010E94E3169B01AC010E94991992
:101FA0002B013C012D853E854F855889C701B6011F
:101FB0000E9499199B01AC010E9499199B01AC01E7
:101FC000C301B2010E94E4160E94141A2B013C01C5
:101FD00029853A854B855C85C501B4010E94991914
:101FE0004B015C01A70196016D817E818F819885EF
:101FF0000E94991929813A814B815C810E9499192B
:102000009B01AC01C501B4010E94E4169B01AC0127
:10201000C301B2010E94631726E73BE742EC5AE492
:102020000E9499196093390270933A0280933B029F
:1020300090933C028091350290913602A091370234
:10204000B09138028093310290933202A093330210
:10205000B093340210922A0460912F0470913004DE
:1020600080913104909132040E94761826E53EE07A
:102070004DEE5FE30E94991920E030E048EC52E415
:102080000E94CC174B015C016093350270933602BD
:10209000809337029093380220912D0230912E02C6
:1020A00040912F02509130020E948C1918165CF456
:1020B00080922D0290922E02A0922F02B0923002B6
:1020C00021E020932C0280912904882389F00E942A
:1020D0007F05C0902B04D0902C04E0902D04F0904C
:1020E0002E04DC01CB018C199D09AE09BF0903C088
:1020F0008FEF9FEFDC017C0120E030E0A901C501FA
:10210000B4010E948C1918160CF04FC020E030E08A
:1021100040E85FE3C501B4010E94C21787FF45C0D4
:102120000E94D0096093410270934202809343025F
:10213000909344020E94A10960933D0270933E0275
:1021400080933F02909340020E947F056093280293
:102150007093290280932A0290932B0260932402A9
:1021600070932502809326029093270260932002A9
:1021700070932102809322029093230260931C02A9
:1021800070931D0280931E0290931F0260931802A9
:102190007093190280931A0290931B0231E03093DE
:1021A0000801309317023093160220E030E040E837
:1021B0005FE3C501B4010E948C191816A4F420E055
:1021C00030E040E450E4C501B4010E94C21787FF2B
:1021D0000AC061E083E00E943B0962E971E088E99E
:1021E00094E00E949F048090350290903602A09067
:1021F0003702B090380220E030E040EA52E4C501F6
:10220000B4010E948C1918166CF520E030E048ECFF
:1022100052E4C501B4010E94C21718161CF12091A6
:102220003102309132024091330250913402C501A3
:10223000B4010E948C191816ACF40E947F056093BB
:1022400024027093250280932602909327026093C4
:102250001C0270931D0280931E0290931F0241E0A6
:102260004093150220E030E048EC52E4C501B4018F
:102270000E948C191816CCF520E030E040EF52E4B3
:10228000C501B4010E94C21787FF2FC080911702B9
:10229000882359F11092170280912402909125020F
:1022A000A0912602B0912702409028025090290266
:1022B00060902A0270902B02BC01CD01641975094F
:1022C000860997090E94761820E030E04AE754E436
:1022D0000E94CC1760931102709312028093130234
:1022E0009093140251E050930C0120E030E044E35D
:1022F00053E4C501B4010E948C19181614F520E0AE
:1023000030E048E453E4C501B4010E94C217181636
:10231000C4F0209131023091320240913302509149
:102320003402C501B4010E948C19181654F40E949D
:102330007F05609318027093190280931A0290939C
:102340001B0220E030E048E453E4C501B4010E94E0
:102350008C1918160CF057C020E030E046E653E424
:10236000C501B4010E94C21787FF4DC0109215022B
:10237000409018025090190260901A0270901B024F
:102380008091280290912902A0912A02B0912B02FB
:10239000A3019201281B390B4A0B5B0BCA01B9013F
:1023A0000E94761820E030E04AE754E40E94CC17FF
:1023B00060930D0270930E0280930F0290931002AF
:1023C00080911C0290911D02A0911E02B0911F02EB
:1023D000A3019201281B390B4A0B5B0BCA01B901FF
:1023E0000E94761820E030E04AE754E40E94CC17BF
:1023F0006093090270930A0280930B0290930C027F
:1024000031E030930A014090390250903A026090D6
:102410003B0270903C0220E030E04AEB53E4C30101
:10242000B2010E948C1987FD1CC020E030E049EC0D
:1024300053E4C301B2010E94C217181694F00E941F
:102440007F05609320027093210280932202909373
:1024500023028092050290920602A0920702B09297
:10246000080220E030E049EC53E4C301B2010E94CD
:102470008C191816CCF520E030E048ED53E4C30188
:10248000B2010E94C21787FF2FC0809116028823D5
:1024900059F1109216028091200290912102A09190
:1024A0002202B09123028090280290902902A090ED
:1024B0002A02B0902B02BC01CD01681979098A0962
:1024C0009B090E94761820E030E04AE754E40E941D
:1024D000CC176093010270930202809303029093E1
:1024E000040241E040930B010E947F05AB01770F8E
:1024F000660B770B83E293E00E946F0969EA71E053
:1025000083E293E00E945E0380910801882309F42E
:10251000A2C06AE971E083E293E00E949F04A701F0
:102520000F2C000C660B770B83E293E00E946F097F
:1025300067EA71E083E293E00E949F0460E080E03C
:102540000E943B09409111025091120260911302C6
:102550007091140221E030E088E994E00E94BC030D
:1025600068E971E088E994E00E949F0460E087E0F8
:102570000E943B096091050270910602809107025A
:10258000909108020E943E18AB01770F660B770B03
:1025900088E994E00E946F0968E971E088E994E0B5
:1025A0000E949F0460E08CE00E943B094091010280
:1025B00050910202609103027091040221E030E028
:1025C00088E994E00E94BC0368E971E088E994E03E
:1025D0000E949F0461E080E00E943B0940910D024F
:1025E00050910E0260910F027091100221E030E0D4
:1025F00088E994E00E94BC0368E971E088E994E00E
:102600000E949F0461E085E00E943B0960E088E948
:1026100094E00E9457036CEA71E088E994E00E941C
:102620009F0461E08CE00E943B09409109025091B7
:102630000A0260910B0270910C0221E030E088E9FF
:1026400094E00E94BC0368E971E088E994E00E948C
:102650009F041092080180910C01882309F443C063
:1026600061EB71E083E293E00E949F0440911102CC
:1026700050911202609113027091140222E030E036
:1026800083E293E00E94BC036FE971E083E293E090
:102690000E949F04A7010F2C000C660B770B83E2AE
:1026A00093E00E946F0967EA71E083E293E00E9481
:1026B0009F0460E080E00E943B094091110250912C
:1026C0001202609113027091140221E030E088E957
:1026D00094E00E94BC0368E971E088E994E00E94FC
:1026E0009F0410920C0180910B01882309F45FC0B4
:1026F00067EB71E083E293E00E949F044091010246
:1027000050910202609103027091040222E030E0D5
:1027100083E293E00E94BC036FE971E083E293E0FF
:102720000E949F04A7010F2C000C660B770B83E21D
:1027300093E00E946F0967EA71E083E293E00E94F0
:102740009F0460E08CE00E943B094091010250919F
:102750000202609103027091040221E030E088E9F6
:1027600094E00E94BC0368E971E088E994E00E946B
:102770009F0460E087E00E943B0960910502709130
:10278000060280910702909108020E943E18AB0158
:10279000770F660B770B88E994E00E946F0968E970
:1027A00071E088E994E00E949F0410920B018091EF
:1027B0000A01882311F40C94D90B63EC71E083E2D5
:1027C00093E00E949F0440910D0250910E0260918F
:1027D0000F027091100222E030E083E293E00E9449
:1027E000BC036DEB71E083E293E00E949F04409193
:1027F000090250910A0260910B0270910C0222E0D2
:1028000030E083E293E00E94BC036FE971E083E271
:1028100093E00E949F04A701FF0C660B770B83E2F5
:1028200093E00E946F0967EA71E083E293E00E94FF
:102830009F0461E080E00E943B0940910D025091AD
:102840000E0260910F027091100221E030E088E9E1
:1028500094E00E94BC0368E971E088E994E00E947A
:102860009F0461E08CE00E943B0940910902509175
:102870000A0260910B0270910C0221E030E088E9BD
:1028800094E00E94BC0368E971E088E994E00E944A
:102890009F0410920A010C94D90B69EC71E083E259
:1028A00093E00E949F040E9467096DE471E088E94B
:1028B00094E00E949F0461E080E00E943B0965ED86
:1028C00071E088E994E00E949F04109254044091C2
:1028D000590450915A0460915B0470915C042AE0A1
:1028E00088E994E00E9473030C94D90B0E94C901FB
:1028F0000C94D90B61E774E0C5010E948B1A18167D
:1029000019060CF007C9109287041092860402C9B8
:1029100089E391E09093CD038093CC038CEC93E01A
:102920000C944F06CF93DF93109226031092250349
:1029300088EE93E0A0E0B0E0809327039093280313
:10294000A0932903B0932A0329E131E030932403B3
:102950002093230325EC30E03093300320932F03A2
:1029600024EC30E0309332032093310320EC30E04C
:10297000309334032093330321EC30E0309336035B
:102980002093350322EC30E0309338032093370353
:1029900026EC30E030933A032093390310923C0345
:1029A00010923D0310923E0310923F031092C30316
:1029B0001092C2038093C4039093C503A093C603EF
:1029C000B093C70329E231E03093C1032093C003E1
:1029D00010929B0410929A0429E431E030939904F8
:1029E000209398042FE320939C0420E12093A104DA
:1029F00022E02093A2041092A3041092EB03109201
:102A0000EC031092EE031092ED031092EF0310927C
:102A1000F0031092F1031092F2031092F30310925C
:102A2000F5031092F4031092F6031092F70310923C
:102A3000F8031092F9031092FA031092FC0310921B
:102A4000FB031092FD031092FE031092FF031092FD
:102A500000041092010410920304109202041092D8
:102A600004041092050410920604109207041092B8
:102A7000080410920D0410920E0410920F0410928C
:102A80001004109211041092120410921B04109260
:102A90001C0410921D0410921E0410921F04109228
:102AA00020041092290410922A0410922F041092EC
:102AB00030041092310410923204109237041092B4
:102AC000380410923D0410923E0410923F0410927C
:102AD0004004109245041092460410924B04109248
:102AE0004C0410924D0410924E0410925304109214
:102AF00054041092590410925A0410925B041092DC
:102B00005C041092610410926204109267041092A7
:102B100068041092690410926A0410926F04109273
:102B20007004209380041092810410928204109209
:102B300083041092850410928404109287041092EA
:102B40008604109288041092890410928A041092CC
:102B50008B0410928C0410928D0410928E041092AB
:102B60008F0410929004109291041092920410928B
:102B7000930410929404109295041092960410926B
:102B80009704109271041092CF031092CE03809399
:102B9000D0039093D103A093D203B093D30389E3DE
:102BA00091E09093CD038093CC031092E3031092B5
:102BB000E2031092E5031092E4031092E7031092EF
:102BC000E6031092E9031092E8036091EA036E7F36
:102BD0006D7F6093EA036695617081E0682783E00A
:102BE0000E94F904EFE4F1E02491EBE3F1E0849139
:102BF000882399F090E0880F991FFC01EC5DFE4F4F
:102C0000A591B491FC01E65EFE4F859194918FB73A
:102C1000F894EC91E22BEC938FBFEFE4F1E0E491B8
:102C2000E093DC03EBE3F1E0E491F0E0EE0FFF1F53
:102C3000E65EFE4F859194919093DE038093DD03D1
:102C4000E0E5F1E02491ECE3F1E084918823C1F028
:102C500090E0880F991FFC01EC5DFE4FC591D49167
:102C6000FC01E65EFE4FA591B4919FB7F894888170
:102C7000E22FE0958E2388838C91E823EC939FBF0D
:102C80008091EA0381FD04C061E084E00E94F904C0
:102C900084E08093D803E0E5F1E0E491E093D90388
:102CA000ECE3F1E0E491F0E0EE0FFF1FE25DFE4F98
:102CB000859194919093DB038093DA03DF91CF9118
:102CC0000895DB018F939F930E94AD16BF91AF9142
:102CD000A29F800D911DA39F900DB29F900D112476
:102CE000089597FB072E16F4009407D077FD09D0BE
:102CF0000E94C01607FC05D03EF4909581959F4F29
:102D00000895709561957F4F0895A1E21A2EAA1B30
:102D1000BB1BFD010DC0AA1FBB1FEE1FFF1FA2178B
:102D2000B307E407F50720F0A21BB30BE40BF50B88
:102D3000661F771F881F991F1A9469F76095709511
:102D4000809590959B01AC01BD01CF010895EE0FD8
:102D5000FF1F0590F491E02D09940E94D416A59FC1
:102D6000900DB49F900DA49F800D911D1124089586
:102D7000B7FF0C94AD160E94AD16821B930B0895FD
:102D8000AA1BBB1B51E107C0AA1FBB1FA617B70791
:102D900010F0A61BB70B881F991F5A95A9F78095AD
:102DA0009095BC01CD010895A29FB001B39FC001D1
:102DB000A39F700D811D1124911DB29F700D811D67
:102DC0001124911D08955058BB27AA270E94FB1675
:102DD0000C943E190E94051938F00E940C1920F03D
:102DE00039F49F3F19F426F40C94DB180EF4E095A7
:102DF000E7FB0C94D518E92F0E94631958F3BA1712
:102E0000620773078407950720F079F4A6F50C9400
:102E100085190EF4E0950B2EBA2FA02D0B01B901E8
:102E200090010C01CA01A0011124FF27591B99F040
:102E3000593F50F4503E68F11A16F040A22F232F4C
:102E4000342F4427585FF3CF469537952795A7959C
:102E5000F0405395C9F77EF41F16BA0B620B730B43
:102E6000840BBAF09150A1F0FF0FBB1F661F771FB4
:102E7000881FC2F70EC0BA0F621F731F841F48F469
:102E8000879577956795B795F7959E3F08F0B0CFF2
:102E90009395880F08F09927EE0F979587950895D9
:102EA0000E94051960F080E891E009F49EEF0E940D
:102EB0000C1928F040E851E071F45EEF0CC00C945E
:102EC000DB180C948519E92FE0780E94631940F310
:102ED000092E052AB1F3261737074807590738F096
:102EE0000E2E07F8E02569F0E025E0640AC0EF63E4
:102EF00007F8009407FADB01B9019D01DC01CA0162
:102F0000AD01EF930E94E3170E943E190E949317B0
:102F10005F91552339F02BED3FE049E450FD49EC3A
:102F20000C94E4160895DF93DD27B92FBF7740E8AE
:102F30005FE31616170648075B0718F4D92F0E949F
:102F400091199F938F937F936F930E94541AEAEB8A
:102F5000F0E00E94DE180E943E192F913F914F91A0
:102F60005F910E94AC19DD2351F09058A2EA2AED3E
:102F70003FE049EC5FE3D0785D270E94FB16DF91CC
:102F80000C943E190E94B11808F481E008950E9443
:102F90001519E3950C944F190E94E0170C943E19F3
:102FA0000E940C1958F00E94051940F029F45F3F67
:102FB00029F00C94D51851110C9486190C94DB1837
:102FC0000E94631968F39923B1F3552391F3951B7C
:102FD000550BBB27AA2762177307840738F09F5F3A
:102FE0005F4F220F331F441FAA1FA9F335D00E2EA7
:102FF0003AF0E0E832D091505040E695001CCAF714
:103000002BD0FE2F29D0660F771F881FBB1F2617D6
:1030100037074807AB07B0E809F0BB0B802DBF01AD
:10302000FF2793585F4F3AF09E3F510578F00C947C
:10303000D5180C9486195F3FE4F3983ED4F3869537
:1030400077956795B795F7959F5FC9F7880F911D9D
:103050009695879597F90895E1E0660F771F881F89
:10306000BB1F621773078407BA0720F0621B730B3C
:10307000840BBA0BEE1F88F7E09508950E9445185F
:103080006894B1110C94861908950E946B1988F008
:103090009F5798F0B92F9927B751B0F0E1F0660F1C
:1030A000771F881F991F1AF0BA95C9F714C0B1305D
:1030B00091F00E948519B1E008950C948519672F4D
:1030C000782F8827B85F39F0B93FCCF3869577958C
:1030D0006795B395D9F73EF4909580957095619575
:1030E0007F4F8F4F9F4F0895E89409C097FB3EF4A0
:1030F00090958095709561957F4F8F4F9F4F992345
:10310000A9F0F92F96E9BB279395F69587957795C2
:103110006795B795F111F8CFFAF4BB0F11F460FF82
:103120001BC06F5F7F4F8F4F9F4F16C0882311F0DA
:1031300096E911C0772321F09EE8872F762F05C0EE
:10314000662371F096E8862F70E060E02AF09A9589
:10315000660F771F881FDAF7880F9695879597F97E
:103160000895990F0008550FAA0BE0E8FEEF161618
:103170001706E807F907C0F012161306E407F5076B
:1031800098F0621B730B840B950B39F40A2661F0DF
:10319000232B242B252B21F408950A2609F4A14082
:1031A000A6958FEF811D811D089597F99F6780E88F
:1031B00070E060E008959FEF80EC0895DF93CF9377
:1031C0001F930F93FF92EF92DF927B018C01689423
:1031D00006C0DA2EEF010E94AC19FE01E894A59119
:1031E0002591359145915591A6F3EF010E94FB166B
:1031F000FE019701A801DA9469F7DF90EF90FF9044
:103200000F911F91CF91DF91089500240A94161613
:10321000170618060906089500240A9412161306C4
:103220001406050608950C94DB180E946B19D8F358
:10323000E894E0E0BB279F57F0F02AED3FE049EC2F
:1032400006C0EE0FBB0F661F771F881F28F0B23A2B
:1032500062077307840728F0B25A620B730B840B62
:10326000E3959A9572F7803830F49A95BB0F661FF4
:10327000771F881FD2F790480C945F1A092E039489
:10328000000C11F4882352F0BB0F40F4BF2B11F453
:1032900060FF04C06F5F7F4F8F4F9F4F0895EF9384
:1032A000E0FF07C0A2EA2AED3FE049EC5FEB0E9495
:1032B000FB160E943E190F90039401FC9058E7EE14
:1032C000F0E00C94721A57FD9058440F551F59F0B6
:1032D0005F3F71F04795880F97FB991F61F09F3F03
:1032E00079F087950895121613061406551FF2CF2C
:1032F0004695F1DF08C0161617061806991FF1CF7C
:1033000086957105610508940895E894BB276627A2
:103310007727CB0197F908950E94B11808F48FEF31
:1033200008959B01AC0160E070E080E89FE30C949D
:10333000CC170E94AC190C943E190E94051938F064
:103340000E940C1920F0952311F00C94D5180C94C0
:10335000DB1811240C9486190E94631970F3959F51
:10336000C1F3950F50E0551F629FF001729FBB277C
:10337000F00DB11D639FAA27F00DB11DAA1F649F18
:103380006627B00DA11D661F829F2227B00DA11DCB
:10339000621F739FB00DA11D621F839FA00D611D51
:1033A000221F749F3327A00D611D231F849F600D72
:1033B000211D822F762F6A2F11249F5750409AF09B
:1033C000F1F088234AF0EE0FFF1FBB1F661F771F27
:1033D000881F91505040A9F79E3F510580F00C94F2
:1033E000D5180C9486195F3FE4F3983ED4F3869584
:1033F00077956795B795F795E7959F5FC1F7FE2B92
:10340000880F911D9695879597F908959F930E942F
:1034100015190F9007FCEE5F0C944F1919F416F470
:103420000C94DB180C945D1A0E946B19B8F3992365
:10343000C9F3B6F39F57550B87FF0E946B1A002400
:10344000A0E640EA900180585695979528F4805C54
:10345000660F771F881F20F026173707480730F4BC
:10346000621B730B840B202931294A2BA6951794D4
:103470000794202531254A2758F7660F771F881FA4
:1034800020F026173707480730F4620B730B840BC4
:10349000200D311D411DA09581F7B901842F915850
:1034A000880F9695879508959B01AC010C94991906
:1034B0000E94B118880B990B08959F3F31F09150ED
:1034C00020F4879577956795B795880F911D969508
:1034D000879597F9089591505040660F771F881F80
:1034E000D2F708959F938F937F936F93FF93EF93FA
:1034F0009B01AC010E949919EF91FF910E94DE1887
:103500002F913F914F915F910C94991981E090E038
:10351000F8940C94E61AFB01DC018D91019080195E
:103520000110D9F3990B0895FB01DC0101900D9274
:103530000020E1F70895FB01DC014150504048F0C4
:1035400001900D920020C9F701C01D9241505040DA
:10355000E0F708951F93FC0199278827BC01E894A0
:1035600011911032E9F3193010F01E30C8F31B32FC
:1035700051F01D3249F4689406C00E94D11A610FBF
:10358000711D811D911D119110531A30B0F33EF43D
:1035900090958095709561957F4F8F4F9F4F1F91AC
:1035A0000895592F482F372F262F660F771F881F12
:1035B000991F660F771F881F991F620F731F841F43
:1035C000951F660F771F881F991F089510E0C1EBA4
:1035D000D0E004C0FE010E94A7162196C23BD1078D
:0635E000C9F7F894FFCFCB
:1035E6001F10101010101000010101010100004011
:1035F6000014005400000000006001DC00290107EF
:10360600011B01A701000000002603F602EE02DFFF
:1036160002D102D002000000001102DC0065027D2A
:1036260002F801100200000000DD07DC0077777762
:103636002E4750536761726167652E727500585048
:103646004F484F4320302E3462004750524D4300BE
:103656004750474741007265616C4167653A2000F3
:103666004C6F636174696F6E2072656164792E0DAB
:103676000A00202020202020200053746F702E0D79
:103686000A4167653A20000D0A0D0A004F544F4261
:10369600003130303A20003430323A20000D0A3101
:1036A60030302D3230303A2000666978696E672EE8
:1036B6002E2E0D0A006E6F75636B204750532E2E0B
:1036C6002E20006E616E00696E66006F7666002EB3
:0236D6000000F2
:00000001FF
