:100000000C9431010C9459010C9459010C94B406D0
:100010000C94B4060C94B4060C9459010C94590138
:100020000C9459010C9459010C9459010C945901E8
:100030000C9459010C9459010C9459010C945901D8
:100040000C94B9050C9459010C947B050C9455053E
:100050000C9459010C9459010C9459010C945901B8
:100060000C9459010C945901510C630C660C6D0CE5
:10007000740CA20CA90CB60CC30CCF0CCF0CCF0C7B
:10008000CF0CCF0CCF0CCF0CCF0CCF0CCF0CCF0C98
:10009000CF0CCF0CCF0CCF0CCF0CCF0CCF0CCF0C88
:1000A000CF0CCF0CCF0CCF0C510C5E0C630C660C3C
:1000B0006D0C740C7B0C880C950C084AD73B3BCE1E
:1000C000016E84BCBFFDC12F3D6C74319ABD568357
:1000D0003DDA3D00C77F11BED9E4BB4C3E916BAA0F
:1000E000AABE000000803F05A84CCDB2D44EB9385E
:1000F00036A9020C50B9918688083CA6AAAA2ABE45
:10010000000000803F000D000D00000000002400F2
:1001100027002A000000000023002600290000001C
:100120000000250028002B00040404040404040437
:100130000202020202020303030303030102040892
:100140001020408001020408102001020408102041
:100150000000000800020100000304070000000086
:100160000000000000407A10F35A00A0724E1809F7
:100170000010A5D4E80000E87648170000E40B540E
:10018000020000CA9A3B000000E1F50500008096DD
:100190009800000040420F000000A086010000000F
:1001A000102700000000E8030000000064000000C9
:1001B00000000A00000000000100000000002C7692
:1001C000D888DC674F0823DFC1DFAE59E1B1B796AD
:1001D000E5E3E453C63AE651997696E8E6C284260A
:1001E000EB898C9B62ED407C6FFCEFBC9C9F40F2E6
:1001F000BAA56FA5F490055A2AF75C936B6CF96762
:100200006DC11BFCE0E40D47FEF520E6B500D0ED26
:10021000902E0300943577050080841E080000208E
:100220004E0A000000C80C333333330F986E12832C
:100230001141EF8D2114893BE65516CFFEE6DB1800
:10024000D1844B381BF77C1D901DA4BBE4242032C5
:1002500084725E228100C9F124ECA1E53D27F213EE
:10026000DC1311241FBECFEFD8E0DEBFCDBF12E0FC
:10027000A0E0B1E0E4E3FCE302C005900D92A431FC
:10028000B107D9F724E0A4E1B2E001C01D92AD3579
:10029000B207E1F711E0C0E3D1E004C02197FE010D
:1002A0000E942515CF32D107C9F70E949A090C94F4
:1002B0000D1E0C9400000895CF92DF92EF92FF92F2
:1002C0000F931F93CF93DF936C017A018B01C0E0F2
:1002D000D0E0CE15DF0589F0D8016D918D01D601F2
:1002E000ED91FC910190F081E02DC6010995892BDB
:1002F00011F47E0102C02196ECCFC701DF91CF91AE
:100300001F910F91FF90EF90DF90CF900895FC0127
:10031000918D828D981761F0828DDF01A80FB11D3C
:100320005D968C91928D9F5F9F73928F90E0089560
:100330008FEF9FEF0895FC01918D828D981731F01A
:10034000828DE80FF11D858D90E008958FEF9FEF6E
:100350000895FC01918D228D892F90E0805C9F4F44
:10036000821B91098F739927089581ED92E00E9475
:10037000A90121E0892B09F420E0822F0895FC01D6
:10038000848DDF01A80FB11DA35ABF4F2C91848D1E
:1003900090E001968F739927848FA689B7892C9353
:1003A000A089B1898C9180648C93938D848D9813EE
:1003B00006C00288F389E02D80818F7D80830895B7
:1003C000EF92FF920F931F93CF93DF93EC0181E0A5
:1003D000888F9B8D8C8D981305C0E889F989808161
:1003E00085FD24C0F62E0B8D10E00F5F1F4F0F739D
:1003F0001127E02E8C8DE8120CC00FB607FCFACF47
:10040000E889F989808185FFF5CFCE010E94BF017F
:10041000F1CF8B8DFE01E80FF11DE35AFF4FF08203
:100420000B8FEA89FB898081806207C0EE89FF8992
:100430006083E889F98980818064808381E090E02D
:10044000DF91CF911F910F91FF90EF900895CF937F
:10045000DF93EC01888D8823C9F0EA89FB898081CC
:1004600085FD05C0A889B9898C9186FD0FC00FB69E
:1004700007FCF5CF808185FFF2CFA889B9898C91DF
:1004800085FFEDCFCE010E94BF01E7CFDF91CF9175
:10049000089580E090E0892B29F00E94B501811138
:1004A0000C940000089590E0FC01E05BFE4F349155
:1004B000FC01E45CFE4F2491FC01E85DFE4FE491F9
:1004C000EE2309F43BC0332339F1333091F038F493
:1004D0003130A9F0323001F584B58F7D12C037304C
:1004E00091F03830A1F03430B9F4809180008F7DE4
:1004F00003C0809180008F77809380000DC084B509
:100500008F7784BD09C08091B0008F7703C0809140
:10051000B0008F7D8093B000F0E0EE0FFF1FE25E31
:10052000FE4FA591B4918FB7F894EC91611103C07F
:1005300020952E2301C02E2B2C938FBF0895209140
:10054000CF023091D0022817390771F49091CD0273
:100550008091CE02981741F0E091CD02F0E0EC5787
:10056000FD4F808190E008958FEF9FEF08950895EB
:100570001F93CF93DF93DC015C962D913C915D97A7
:100580002115310539F481E090E013969C938E9308
:1005900012973DC05196ED91FC91529750969C91C7
:1005A0005097892F80951FB75E964C915E9741FBBF
:1005B000772770F941FD6095F8944081772311F019
:1005C000492B01C048234083E9012197F1F748E016
:1005D000508160FF02C0592B01C058235083E901AC
:1005E0002197F1F76695415099F7772321F0908193
:1005F0008923808303C08081982B90831FBF5C96E2
:100600008D919C915D970197F1F721E030E0C90150
:10061000DF91CF911F9108952091CF023091D002A8
:100620002817390771F48091CE022091CD0290E015
:10063000805C9F4F821B910960E470E00E94EF1480
:10064000089580E090E008952091CF023091D0028B
:1006500028173907B9F49091CD028091CE029817EE
:1006600089F0E091CD02F0E0EC57FD4F80812091C0
:10067000CD0230E02F5F3F4F2F7333272093CD0201
:1006800090E008958FEF9FEF08950E94A9190F93AE
:100690001F93CF93DF938C01EB01FC01808191814B
:1006A0000097B1F0688179816115710579F0428117
:1006B00053812C813D814217530740F00E94C0199D
:1006C0008C819D81F8019583848313C00E94471813
:1006D00088819981F801918380838A819B819383AA
:1006E00082838C819D8195838483198218821B82E9
:1006F0001A821D821C82DF91CF911F910F91089564
:10070000EF92FF920F931F93CF93DF93EC017B0146
:100710008A0188819981009729F02A813B812417D9
:100720003507F8F4B8016F5F7F4F0E94DF1800971C
:1007300059F0998388831B830A832C813D81232B65
:1007400081F4FC0110820DC088819981009711F01D
:100750000E944718198218821D821C821B821A82ED
:1007600007C01D830C83B701888199810E94C0193D
:10077000CE01DF91CF911F910F91FF90EF900895DF
:10078000FC01808191810C944718EF92FF920F93A6
:100790001F93CF93DF93CDB7DEB7A1970FB6F89431
:1007A000DEBF0FBECDBF7C01CB01BA01F7011182C4
:1007B0001082138212821582148242E0420F8E014F
:1007C0000F5F1F4F0E94D619009769F0FC0101903E
:1007D0000020E9F73197AF01481B590BBC01C70155
:1007E0000E9480030EC0F70180819181009711F073
:1007F0000E944718F7011182108215821482138219
:100800001282A1960FB6F894DEBF0FBECDBFDF9166
:10081000CF911F910F91FF90EF9008956115710591
:1008200079F0FB0101900020E9F73197AF01461BF9
:10083000570BDC01ED91FC910280F381E02D0994CE
:1008400080E090E008954F925F926F927F92EF92D6
:10085000FF920F931F93CF93DF93CDB7DEB7A1978E
:100860000FB6F894DEBF0FBECDBF7C01FA01CB01FD
:1008700019A2223008F42AE08E010F5D1F4F422E8C
:10088000512C612C712CBF01A30192010E94031510
:10089000F901CA01015011096A3014F4605D01C008
:1008A000695CD8016C93232B242B252B61F7B801AD
:1008B000C7010E940E04A1960FB6F894DEBF0FBECA
:1008C000CDBFDF91CF911F910F91FF90EF907F905F
:1008D0006F905F904F9008954F925F926F927F92CA
:1008E0008F929F92AF92BF92CF92DF92EF92FF9240
:1008F000CF93DF93EC016A017B01B22E9A01AB0129
:10090000C701B6010E948417882319F066E072E0DF
:1009100027C026013701E89477F82FEF3FEF4FE724
:100920005FE7C301B2010E94841781110DC02FEF50
:100930003FEF4FE75FE7C301B2010E94981C181612
:100940001CF46AE072E00CC02FEF3FEF4FE75FE46A
:10095000C701B6010E94251718169CF46EE072E0DC
:10096000CE01DF91CF91FF90EF90DF90CF90BF90BD
:10097000AF909F908F907F906F905F904F900C946E
:100980000E042FEF3FEF4FE75FECC701B6010E9467
:10099000981C87FDE3CF20E030E0A901C701B60134
:1009A0000E94981C87FF0EC0E881F9810190F081B8
:1009B000E02D6DE2CE0109954C01F7FAF094F7F8BD
:1009C000F09402C0812C912CA12C60E070E080E0BA
:1009D0009FE3AB1441F020E030E040E251E40E949C
:1009E0001716A394F6CF9B01AC01C701B6010E9474
:1009F00034152B013C010E9490166B017C010E9472
:100A00009D1C9B01AC01C301B2010E9433152B0157
:100A10003C012AE0B701A601CE010E9423047C011B
:100A2000E80CF91CBB2039F062E172E0CE010E94B3
:100A30000E04E80EF91EDB2CDD2029F120E030E069
:100A400040E251E4C301B2010E94FE1C2B013C01B3
:100A50000E9490164B01A12CB12C2AE0B501A401F3
:100A6000CE010E942304E80EF91EC501B4010E94C4
:100A70009D1C9B01AC01C301B2010E9433152B01E7
:100A80003C01DA94D9CFC701DF91CF91FF90EF906D
:100A9000DF90CF90BF90AF909F908F907F906F909E
:100AA0005F904F9008950C940E041F920F920FB612
:100AB0000F9211242F933F934F935F936F937F93E4
:100AC0008F939F93AF93BF93EF93FF9381ED92E04A
:100AD0000E94BF01FF91EF91BF91AF919F918F91C4
:100AE0007F916F915F914F913F912F910F900FBE2A
:100AF0000F901F9018951F920F920FB60F9211240E
:100B00002F938F939F93EF93FF93E091E102F091E6
:100B1000E2028081E091E702F091E80282FD12C0DA
:100B200090818091EA028F5F8F732091EB02821790
:100B300051F0E091EA02F0E0EF52FD4F958F809383
:100B4000EA0201C08081FF91EF919F918F912F91D7
:100B50000F900FBE0F901F9018952FB7F8946091CB
:100B6000C9027091CA028091CB029091CC022FBF32
:100B700008951F920F920FB60F9211242F933F9357
:100B80008F939F93AF93BF938091C9029091CA02B4
:100B9000A091CB02B091CC023091C80223E0230F88
:100BA0002D3720F40196A11DB11D05C026E8230FA5
:100BB0000296A11DB11D2093C8028093C902909393
:100BC000CA02A093CB02B093CC028091C402909150
:100BD000C502A091C602B091C7020196A11DB11D28
:100BE0008093C4029093C502A093C602B093C7023B
:100BF000BF91AF919F918F913F912F910F900FBE19
:100C00000F901F901895AF92BF92CF92DF92FF92F4
:100C10000F931F93CF93DF931F92CDB7DEB75C0185
:100C2000F62EFC011382128288EE93E0A0E0B0E081
:100C300084839583A683B7838AE091E09183808340
:100C4000178A168A118E108E138E128E158E148EA0
:100C5000668D6E7F20FB61F9668F6695617081E01D
:100C60006827842F49830E945302498150E0BA01CA
:100C7000645C7E4FFB01A491485D5E4FFA01849154
:100C80008823A9F090E0880F991F9C01265F3E4FB2
:100C9000F90105911491825E9E4FFC0125913491DA
:100CA0008FB7F894F8019081A92BA0838FBFFB0127
:100CB0006491F501608BFA014491E42FF0E0EE0FAE
:100CC000FF1FE25EFE4F85919491F501928B818B1F
:100CD0000F2D10E0C801845C9E4F6C01FC018491D3
:100CE000085D1E4FF80124912223C1F030E0220F4D
:100CF000331FF901E65FFE4FA591B491225E3E4F8E
:100D0000F901459154912FB7F8949C9180959823BF
:100D10009C93FA019081892380832FBFF501868DF2
:100D200081FD04C061E08F2D0E945302F501F4861D
:100D3000F601C490F501C586F8010491E02FF0E0BA
:100D4000EE0FFF1FEC5EFE4F85919491F5019787A2
:100D500086870F90DF91CF911F910F91FF90DF90C9
:100D6000CF90BF90AF9008951F920F920FB60F9241
:100D700011242F933F934F935F936F937F938F93A0
:100D80009F93AF93BF93EF93FF93E091CF02F091C6
:100D9000D002309709F451C0968DA685B785858518
:100DA00091FF04C09C91892329F447C09C91892319
:100DB00009F043C0A389B4899C91858980958923D2
:100DC0008C93868997890197F1F7608D718DA6853F
:100DD000B785558538E020E0CB010197F1F7822FE8
:100DE00090E095958795282F4C91452309F0206830
:100DF000315091F7868D81FD20958091CE0290E053
:100E000001968F7399273091CD02381749F0A09140
:100E1000CE02B0E0AC57BD4F2C938093CE0203C0FE
:100E2000868D8160868F828D938D0197F1F7A389DE
:100E3000B4899C918589892B8C93FF91EF91BF9107
:100E4000AF919F918F917F916F915F914F913F9162
:100E50002F910F900FBE0F901F901895E091CF0229
:100E6000F091D002E817F90769F4A389B4899C913D
:100E70008589809589238C931092D0021092CF029D
:100E800081E0089580E00895CF93DF93EC018A8597
:100E90009B85AC85BD858E839F83A887B9870E947B
:100EA000AD056A837B838C839D8381E089838883FE
:100EB000DF91CF9108952F923F924F925F926F9260
:100EC0007F928F929F92AF92BF92CF92DF92EF92DA
:100ED000FF920F931F93CF93DF93D82FC92F8B01CE
:100EE0000E94F61924E630E040E050E00E9403152D
:100EF00049015A019B01AC0160E876E988E990E07C
:100F00000E94CB146B017C01F80191828082ED2F4D
:100F1000FC2F2191822F022E000C990BC0970A976B
:100F2000C0F32E3239F51F0180E8882E86E9982E0D
:100F300088E9A82EB12C9AE0492E512C612C712CF5
:100F4000F101C1911F010C2E000CDD0BE097CA309E
:100F5000D10580F4C501B401A30192010E940315DB
:100F600049015A01DE010E942B15C60ED71EE81E4C
:100F7000F91EE6CFA5E0B0E0A70196010E94BC1DD6
:100F80006F5F7F4F8F4F9F4F23E030E040E050E096
:100F90000E940315F801228333834483558316820C
:100FA000DF91CF911F910F91FF90EF90DF90CF9045
:100FB000BF90AF909F908F907F906F905F904F9079
:100FC0003F902F900895FF920F931F93CF93DF933D
:100FD000EC01FF24F39488818D3211F0F12C01C0D3
:100FE0002196CE010E94F6199B01AC01A4E6B0E067
:100FF0000E94BC1DFE014991242F042E000C330BCE
:10100000205331092A303105A8F34E3241F52181B0
:10101000022E000C330B205331092A303105F8F42D
:101020004AE0429F8001439F100D1124012E000CC5
:10103000220B330B600F711F821F931F0281002E42
:10104000000C110B005311090A30110540F4012E58
:10105000000C220B330B600F711F821F931FFF20A8
:1010600039F090958095709561957F4F8F4F9F4F88
:10107000DF91CF911F910F91FF900895CF93DF9350
:10108000FC01138E128E118E108E178A168A82E43E
:1010900090E0958F848F8485863108F04DC02FE0D5
:1010A00030E0378B268B20E430E0318F208F27E231
:1010B00030E0338F228F90916800883050F021E02B
:1010C0008E3008F420E081E001C0880F2A95EAF70D
:1010D00001C084E0892B809368009485983038F0B3
:1010E0009E3040F0963148F020E030E008C02DE618
:1010F00030E005C02BE630E002C02CE630E0348B57
:10110000238B983030F481E001C0880F9A95EAF77C
:101110000EC0292F30E09E3018F42850310902C04B
:101120002E50310981E001C0880F2A95EAF7858B9E
:10113000848D958D0197F1F7828D938D892BE9F040
:101140008091CF029091D0028E179F07B1F0EF01EE
:10115000009711F00E942E078E8D8E7F8E8F109239
:10116000CE021092CD02D093D002C093CF02EB8971
:10117000FC8990818D89892B8083DF91CF9108959F
:10118000CF92DF92EF92FF920F931F93CF93DF9353
:101190006B01770FEE08FF08F7FE1FC0EC01E88136
:1011A000F9810190F081E02D6DE209958C014427D1
:1011B0005527BA014C195D096E097F092AE0CE0155
:1011C0000E942304800F911FDF91CF911F910F91F7
:1011D000FF90EF90DF90CF9008952AE0B701A6012D
:1011E000DF91CF911F910F91FF90EF90DF90CF9003
:1011F0000C9423040F931F93CF93DF93FC01C481BE
:10120000D581209719F4FB01108210C0C430D1059C
:1012100010F0C4E0D0E08B01FC0160817181AE016F
:10122000C8010E94C719C00FD11F1882DF91CF914A
:101230001F910F9108950F931F93CF93DF938C010C
:10124000C0E0D0E0F801EC0FFD1F6491662371F05F
:10125000E0916E03F0916F030190F081E02D8EE636
:1012600093E00995892B11F02196ECCFCE01DF9107
:10127000CF911F910F910895CF92DF92EF92FF923D
:101280001092AD036091B5037091B60380E090E0D9
:101290000E949D1C6B017C016091B7037091B803A3
:1012A0008091B9039091BA030E949D1C28E23BE60D
:1012B0004EE65EE40E9417169B01AC01C701B60121
:1012C0000E9434152091BB0321119058FF90EF909C
:1012D000DF90CF900895CF92DF92EF92FF9210921D
:1012E000AD036091AE037091AF0380E090E00E9487
:1012F0009D1C6B017C016091B0037091B1038091E2
:10130000B2039091B3030E949D1C28E23BE64EE697
:101310005EE40E9417169B01AC01C701B6010E9452
:1013200034152091B40321119058FF90EF90DF9075
:10133000CF900895CF93DF93CDB7DEB7EA970FB67E
:10134000F894DEBF0FBECDBF789484B5826084BDB3
:1013500084B5816084BD85B5826085BD85B58160B9
:1013600085BD80916E00816080936E001092810037
:1013700080918100826080938100809181008160F2
:1013800080938100809180008160809380008091B3
:10139000B10084608093B1008091B000816080933F
:1013A000B00080917A00846080937A0080917A0006
:1013B000826080937A0080917A00816080937A00C5
:1013C00080917A00806880937A001092C100E09149
:1013D000E102F091E20282E08083E091DD02F0918F
:1013E000DE021082E091DF02F091E00280E1808372
:1013F0001092E902E091E502F091E60286E0808336
:10140000E091E302F091E402808180618083E091C9
:10141000E302F091E402808188608083E091E3023E
:10142000F091E402808180688083E091E302F09192
:10143000E40280818F7D80838EE693E00E943E08E7
:101440008DE893E00E943E080E94AD05609314026F
:101450007093150280931602909317021AA219A294
:101460001CA21BA21EA21DA240E050E06AE771E090
:10147000CE0181960E9480031C8E1B8E1E8E1D8EB7
:1014800018A21F8E40E050E06AE771E0CE014B9653
:101490000E9480032224239447E0342E11E08DE83B
:1014A00093E00E940C031816190614F00C94C21352
:1014B0008DE893E00E942403082F809149049091C5
:1014C0004A04A0914B04B0914C040196A11DB11D9A
:1014D0008093490490934A04A0934B04B0934C0426
:1014E000043209F49CC2E0914304053234F40A301A
:1014F00071F00D3009F0A1C20AC00A3241F00C327D
:1015000009F09BC280913004802780933004EF3033
:1015100008F073C1F0E0EE5CFB4F10828091310463
:10152000882309F46CC1209132043FEB320F822FE3
:10153000022E000C990B363010F4C79707C02156C5
:10154000263018F48755910901C0C097282F22959D
:10155000207F309133044FEB430F832F032E000C79
:10156000990B463010F4C79707C03156363018F43F
:101570008755910901C0C097820F9091300489135B
:1015800029C18091550490915604A0915704B091BF
:1015900058040196A11DB11D8093550490935604E3
:1015A000A0935704B093580480914404882399F081
:1015B00080914D0490914E04A0914F04B09150043D
:1015C0000196A11DB11D80934D0490934E04A093EC
:1015D0004F04B0935004E0904104EE2009F46BC036
:1015E00021E0E212D0C08091D4039091D503A09164
:1015F000D603B091D7038093D0039093D103A093E7
:10160000D203B093D3030E94AD056093D8037093C7
:10161000D9038093DA039093DB03E092CF03E09247
:10162000CE038091E2039091E303A091E403B09193
:10163000E5038093DE039093DF03A093E003B09370
:10164000E1030E94AD056093E6037093E703809386
:10165000E8039093E903E092DD03E092DC038091DC
:101660004404882309F48FC0ECEBF3E0AEEAB3E066
:10167000832D01900D928A95E1F7E3ECF3E0A5EB61
:10168000B3E0832D01900D928A95E1F70E94AD059C
:101690006093CA037093CB038093CC039093CD03E4
:1016A000E092AD03E092AC038AEE93E00E9444071F
:1016B00088EF93E066C08091E2039091E303A091EC
:1016C000E403B091E5038093DE039093DF03A093DE
:1016D000E003B093E1030E94AD056093E6037093CD
:1016E000E7038093E8039093E9031093DD031093DD
:1016F000DC0380914404882321F1ECEBF3E0AEEAB3
:10170000B3E0832D01900D928A95E1F7E3ECF3E0CD
:10171000A5EBB3E0832D01900D928A95E1F70E942D
:10172000AD056093CA037093CB038093CC03909371
:10173000CD031093AD031093AC0386E094E00E94B8
:10174000440780911E0490911F04A0912004B09141
:10175000210480931A0490931B04A0931C04B0935B
:101760001D040E94AD0560931604709317048093C6
:10177000180490931904109315041093140482E232
:1017800094E00E944407C0904704D0904804C114DC
:10179000D10409F432C1E0914704F091480466A1F4
:1017A00077A1F60186A197A10E94B719892B09F0AC
:1017B00024C1B601C60140960E94C0190E94AD0521
:1017C000F60160A371A382A393A325A224A2C2A4BD
:1017D000D3A4DDCF8091510490915204A091530481
:1017E000B09154040196A11DB11D809351049093B2
:1017F0005204A0935304B093540480E0FFC090912E
:101800004204911136C06EE371E082E394E00E94DD
:10181000B719892B19F4109341040EC064E471E0E8
:1018200082E394E00E94B719892B19F410924104C5
:1018300003C0F2E0F0934104809145049091460486
:101840009093480480934704C0904704D090480484
:10185000C114D10491F2F601A6A0B7A062E374E02E
:10186000C5010E94B71997FF99C7F60182A593A5F4
:10187000E7CFE0914104E23009F491C08091320455
:10188000882309F48CC020E2E29FF0011124E92BA7
:101890003197E932F10508F082C0EC5CFF4F0C94FF
:1018A000251582E394E00E94E3076093E2037093BE
:1018B000E3038093E4039093E50371C091E08134E6
:1018C00009F043C043C06CEB73E009C091E083357D
:1018D00009F090E09093C20362C063EC73E082E38E
:1018E00094E00E945B075BC091E0873509F090E0CF
:1018F0009093C90354C082E394E00E94E30760938D
:10190000F4037093F5038093F6039093F70347C0B5
:1019100082E394E00E94E30760930204709303045F
:1019200080930404909305043AC082E394E00E94FB
:10193000F6196093D4037093D5038093D6039093E4
:10194000D7032DC091E081330CF490E090934404D0
:1019500026C082E394E00E94F61960931E047093FF
:101960001F04809320049093210419C082E394E023
:101970000E94E30760932C0470932D0480932E043F
:1019800090932F040CC082E394E00E94E3076093DD
:101990001004709311048093120490931304C09068
:1019A0004704D0904804C114D10409F426CFE09133
:1019B0004704F091480466A177A1F60186A197A19A
:1019C0000E94B719892B09F018CFF60120A531A57F
:1019D0008091420490E0821793070CF40ECF2817F1
:1019E000390739F440E150E062E374E0C6010E9437
:1019F000C719F601C2A4D3A4D6CF81E090914204C6
:101A00009F5F909342041092430491E00A3209F0E0
:101A100090E090933104882309F441CD23C01092C3
:101A200043041092420410923004F2E0F093410417
:101A3000109231041092440432CDEE3040F481E033
:101A40008E0F80934304F0E0EE5CFB4F00838091A7
:101A50003104811124CD80913004F02EF826F092CB
:101A600030041DCD8091AC03882309F46EC66AE46E
:101A700071E081ED92E00E940E0468E771E081ED73
:101A800092E00E940E048091EB03882309F481C048
:101A90008091800290918102A0918202B091830294
:101AA00080937C0290937D02A0937E02B0937F028C
:101AB0001092EB036091F0037091F1038091F203B7
:101AC0009091F3030E949F1C26E53EE04DEE5FE3FC
:101AD0000E94FE1C20E030E048EC52E40E94171601
:101AE00060938002709381028093820290938302BC
:101AF0000E94891670937B0260937A02209178028B
:101B0000309179022617370720F470937902609399
:101B1000780267E571E08EE693E00E9453054091FC
:101B20007A0250917B0260E070E02AE08EE693E05A
:101B30000E9423046FEF8EE693E00E94B8026FEFDD
:101B40008EE693E00E94B8026FEF8EE693E00E946B
:101B5000B80264E571E08EE693E00E94530540917F
:101B600078025091790260E070E02AE08EE693E01E
:101B70000E9423046FEF8EE693E00E94B8026FEF9D
:101B80008EE693E00E94B8026FEF8EE693E00E942B
:101B9000B80220E030E0A9016091740270917502F2
:101BA00080917602909177020E94981C882379F0A8
:101BB00020E030E0A9016091700270917102809183
:101BC0007202909173020E94981C81112FC062E6EC
:101BD00071E08EE693E00E9453056FEF8EE693E08E
:101BE0000E94B8026FEF8EE693E00E94B8026FEF9A
:101BF0008EE693E00E94B80269E671E081ED92E022
:101C00000E9453050E946B096093740270937502E1
:101C100080937602909377020E943C096093700251
:101C200070937102809372029093730220917002FC
:101C3000309171024091720250917302809074024F
:101C400090907502A0907602B09077022FAB38AFDB
:101C500049AF5AAF0E943C092B013C010E946B091D
:101C60006B017C012FA938AD49AD5AADC301B2015A
:101C70000E94331525E33AEF4EE85CE30E94FE1C18
:101C80002B013C010E9432176BAB7CAB8DAB9EAB42
:101C9000C301B2010E9412166FA378A789A79AA761
:101CA00025E33AEF4EE85CE3C701B6010E94FE1C53
:101CB0006B017C0125E33AEF4EE85CE3C501B4011A
:101CC0000E94FE1C2B013C01C701B6010E94321785
:101CD0004B015C01C701B6010E9412166BA77CA7DD
:101CE0008DA79EA7C301B2010E9432176FA778ABE0
:101CF00089AB9AABC301B2010E9412166B017C0141
:101D00002FA538A949A95AA96BA57CA58DA59EA583
:101D10000E94FE1C2B013C01A7019601C501B401E4
:101D20000E94FE1C2FA138A549A55AA50E94FE1CA1
:101D30009B01AC01C301B2010E9433159B01AC01B0
:101D40000E94FE1C2B013C012BA93CA94DA95EA9B8
:101D5000C701B6010E94FE1C9B01AC010E94FE1C43
:101D60009B01AC01C301B2010E9434150E944017CF
:101D70002B013C012FA538A949A95AA9C501B401D5
:101D80000E94FE1C4B015C01A70196016BA57CA57E
:101D90008DA59EA50E94FE1C2FA138A549A55AA578
:101DA0000E94FE1C9B01AC01C501B4010E943415C8
:101DB0009B01AC01C301B2010E94B31526E73BE7CA
:101DC00042EC5AE40E94FE1C60936C0270936D0218
:101DD00080936E0290936F026BE771E08EE693E062
:101DE0000E94530560916C0270916D0280916E02A9
:101DF00090916F020E9489168EE693E00E94C008BF
:101E00006FEF8EE693E00E94B8026FEF8EE693E0EC
:101E10000E94B8026FEF8EE693E00E94B802C09075
:101E20008002D0908102E0908202F090830220E054
:101E300030E0A901C701B6010E94251718160CF061
:101E400049C120E030E040E85FE3C701B6010E94ED
:101E5000981C87FF3FC10E946B09609374027093C6
:101E6000750280937602909377020E943C096093FA
:101E700070027093710280937202909373020E94B9
:101E8000AD05609368027093690280936A02909333
:101E90006B02609364027093650280936602909374
:101EA0006702609360027093610280936202909374
:101EB000630260935C0270935D0280935E02909374
:101EC0005F02609358027093590280935A02909374
:101ED0005B0265E871E08EE693E00E94530562E2E2
:101EE0008EE693E00E94B80220E2C22E22E0D22EBB
:101EF0003AE0E32EF12C5601F601619171916F01E8
:101F000080E090E00E949D1C20E030E04AE754E42D
:101F10000E941716AB01BC0121E08EE693E00E94FF
:101F20006C0488E091E00E941B096AE08EE693E071
:101F30000E94B8026DE08EE693E00E94B802B701FD
:101F400081ED92E00E94C0086FE871E081ED92E0BF
:101F50000E945305F5016081718180E090E00E944C
:101F60009D1C20E030E04AE754E40E941716AB01C4
:101F7000BC0121E081ED92E00E946C0468E771E011
:101F800081ED92E00E940E04FAE0EF0EF11C26E9CA
:101F9000E216F10409F0AFCF62E28EE693E00E9410
:101FA000B8026FEF8EE693E00E94B8026FEF8EE604
:101FB00093E00E94B8026FEF8EE693E00E94B802B1
:101FC00063E971E08EE693E00E94530562E28EE6DB
:101FD00093E00E94B8029CE3C92E92E0D92E5601EC
:101FE000F601619171916F0180E090E00E949D1C6B
:101FF00020E030E04AE754E40E941716AB01BC0130
:1020000021E08EE693E00E946C0486E091E00E945D
:102010001B096AE08EE693E00E94B8026DE08EE64E
:1020200093E00E94B802B70181ED92E00E94C008DF
:102030006FE871E081ED92E00E945305F501608147
:10204000718180E090E00E949D1C20E030E04AE732
:1020500054E40E941716AB01BC0121E081ED92E02F
:102060000E946C0468E771E081ED92E00E940E042A
:10207000FAE0EF0EF11C22E2E21621E0F20609F08E
:10208000AECF62E28EE693E00E94B8026FEF8EE67A
:1020900093E00E94B8026FEF8EE693E00E94B802D0
:1020A0006FEF8EE693E00E94B8026DE971E08EE674
:1020B00093E00E9453056FEF8EE693E00E94B80212
:1020C0006FEF8EE693E00E94B8026FEF8EE693E02A
:1020D0000E94B802C0908002D0908102E0908202FB
:1020E000F090830220E030E040E85FE3C701B601F2
:1020F0000E9425171816BCF520E030E040EA50E4B5
:10210000C701B6010E94981C87FF2DC020917C0258
:1021100030917D0240917E0250917F02C701B6014D
:102120000E9425171816FCF40E94AD056093580212
:102130007093590280935A0290935B0266EA71E0B1
:102140008EE693E00E9453056FEF8EE693E00E94C7
:10215000B8026FEF8EE693E00E94B8026FEF8EE652
:1021600093E00E94B802E0907A02F0907B02E114C2
:10217000F10499F1C7016AE070E00E94DB144B01A1
:102180006C010197059748F120917C0230917D0206
:1021900040917E0250917F02609180027091810295
:1021A00080918202909183020E9425171816ACF448
:1021B0005401CD2819F481E0A81AB1080E94AD0598
:1021C000F501EE0FFF1FE05EFD4F209158023091A8
:1021D0005902621B730B71836083EFE1EE1AF10801
:1021E000F9E0EF16F10408F04DC0609124027091FF
:1021F000250280E090E00E949D1C20E030E04AE74C
:1022000054E40E941716AB01BC0121E0CE014596B3
:102210000E94C503BE016B5E7F4FCE0181960E9476
:102220004703CE0145960E94C003BE01655F7F4F04
:10223000CE0181960E94FA086FEA71E08EE693E083
:102240000E94530562E28EE693E00E94B802BE014E
:10225000655F7F4F8EE693E00E94530562E28EE653
:1022600093E00E94B8026FEF8EE693E00E94B802FE
:102270006FEF8EE693E00E94B8026FEF8EE693E078
:102280000E94B80280917A0290917B02CD970997C3
:1022900008F04DC060912A0270912B0280E090E01E
:1022A0000E949D1C20E030E04AE754E40E9417168B
:1022B000AB01BC0121E0CE0145960E94C503BE01E1
:1022C0006B5E7F4FCE0181960E944703CE014596FB
:1022D0000E94C003BE01655F7F4FCE0181960E94C0
:1022E000FA0869EB71E08EE693E00E94530562E222
:1022F0008EE693E00E94B802BE01655F7F4F8EE6D6
:1023000093E00E94530562E28EE693E00E94B802D9
:102310006FEF8EE693E00E94B8026FEF8EE693E0D7
:102320000E94B8026FEF8EE693E00E94B80280919F
:102330007A0290917B0285569109439708F04DC02F
:10234000609132027091330280E090E00E949D1C07
:1023500020E030E04AE754E40E941716AB01BC01CC
:1023600021E0CE0145960E94C503BE016B5E7F4F02
:10237000CE0181960E944703CE0145960E94C0037C
:10238000BE01655F7F4FCE0181960E94FA0863EC23
:1023900071E08EE693E00E94530562E28EE693E0E0
:1023A0000E94B802BE01655F7F4F8EE693E00E94F7
:1023B000530562E28EE693E00E94B8026FEF8EE66C
:1023C00093E00E94B8026FEF8EE693E00E94B8029D
:1023D0006FEF8EE693E00E94B802E0907A02F090F0
:1023E0007B02C701855B9109449740F520917C02EF
:1023F00030917D0240917E0250917F026091800277
:102400007091810280918202909183020E9425172F
:102410001816A4F40E94AD0560935C0270935D02EF
:1024200080935E0290935F0220915802309159028E
:10243000621B730B709347026093460229ECE21A09
:10244000F10883E1E816F10408F0A0C060914602AB
:102450007091470280E090E00E949D1C20E030E0F7
:102460004AE754E40E941716AB01BC0121E0CE01FB
:1024700045960E94C503BE016B5E7F4FCE018196DB
:102480000E944703CE0145960E94C003BE01655FCE
:102490007F4FCE0181960E94FA086EEC71E08EE6C5
:1024A00093E00E94530562E28EE693E00E94B80238
:1024B000BE01655F7F4F8EE693E00E94530562E2A6
:1024C0008EE693E00E94B8026FEF8EE693E00E94E2
:1024D000B8026FEF8EE693E00E94B8026FEF8EE6CF
:1024E00093E00E94B8026091460270914702809189
:1024F000320290913302681B790B80E090E00E94D9
:102500009D1C20E030E04AE754E40E941716AB011E
:10251000BC0121E0CE0145960E94C503BE016B5E61
:102520007F4FCE014B960E944703CE0145960E94F5
:10253000C003BE016F5F7F4FCE014B960E94FA0829
:1025400069ED71E08EE693E00E94530562E28EE64B
:1025500093E00E94B802BE016F5F7F4F8EE693E06A
:102560000E94530562E28EE693E00E94B8026FEF8C
:102570008EE693E00E94B8026FEF8EE693E00E9431
:10258000B8026FEF8EE693E00E94B802C0906C0232
:10259000D0906D02E0906E02F0906F0220E030E08B
:1025A0004AEB53E4C701B6010E94251787FD24C0FA
:1025B00020E030E049EC53E4C701B6010E94981CCA
:1025C0001816D4F00E94AD0560936002709361020A
:1025D000809362029093630260917A0270917B0211
:1025E00080E090E00E949D1C60931C0270931D028D
:1025F00080931E0290931F0220E030E049EC53E4E8
:10260000C701B6010E94251718160CF092C020E0F1
:1026100030E048ED53E4C701B6010E94981C87FFE3
:1026200088C08091600290916102A0916202B09195
:102630006302C0906802D0906902E0906A02F09054
:102640006B02BC01CD016C197D098E099F090E94A6
:102650009F1C20E030E04AE754E40E941716AB01CB
:10266000BC01409318025093190260931A027093B0
:102670001B0221E0CE0145960E94C503BE016B5EA0
:102680007F4FCE0181960E944703CE0145960E945E
:10269000C003BE01655F7F4FCE0181960E94FA089C
:1026A00066EE71E08EE693E00E94530562E28EE6EC
:1026B00093E00E94B802BE01655F7F4F8EE693E013
:1026C0000E94530562E28EE693E00E94B8026FEF2B
:1026D0008EE693E00E94B8026FEF8EE693E00E94D0
:1026E000B8026FEF8EE693E00E94B80260EF71E0EF
:1026F0008EE693E00E94530560911C0270911D02CA
:1027000080911E0290911F020E9489168EE693E02E
:102710000E94C0086FEF8EE693E00E94B8026FEF50
:102720008EE693E00E94B8026FEF8EE693E00E947F
:10273000B8020E94AD056093140270931502809355
:102740001602909317020C944F0A6BEF71E081ED23
:1027500092E00E9453051092150440911A04509182
:102760001B0460911C0470911D042AE081ED92E02D
:102770000E94230468E771E081ED92E00E940E045C
:102780000C944F0ACE014B960E94C003CE01819655
:102790000E94C0030E9449020C942E0A62E374E076
:1027A000C5010E94B719181619060CF026C8109218
:1027B00048041092470421C8CF93DF93CAE0D1E0C8
:1027C000D0936F03C0936E038EE693E00E942E07B2
:1027D000D0938E03C0938D038DE893E0DF91CF916A
:1027E0000C942E07E1EDF2E01382128288EE93E062
:1027F000A0E0B0E084839583A683B7838AE191E06B
:102800009183808385EC90E09587848784EC90E0C9
:102810009787868780EC90E0918B808B81EC90E0AD
:10282000938B828B82EC90E0958B848B86EC90E08E
:10283000978B868B118E128E138E148EECEAF3E03A
:1028400010821182138212821482158216821782DC
:1028500010861286118613861486158616861786AC
:10286000118A108A128A138A148A158A168A108E7F
:10287000178A118E128E138E148E158E12A213A229
:1028800014A215A216A217A210AA11AA12AA13AA7C
:1028900014AA15AA1092EA031092EB031092F00307
:1028A0001092F1031092F2031092F3031092F803C6
:1028B0001092F9031092FE031092FF03109200048D
:1028C00010920104109206041092070410920C0456
:1028D00010920D0410920E0410920F041092140422
:1028E0001092150410921A0410921B0410921C04EA
:1028F00010921D04109222041092230410922804B6
:102900001092290410922A0410922B041092300481
:102910001092310482E0809341041092420410929C
:1029200043041092440410924604109245041092FD
:102930004804109247041092490410924A041092DD
:102940004B0410924C0410924D0410924E041092BD
:102950004F0410925004109251041092520410929D
:10296000530410925404109255041092560410927D
:102970005704109258041092320420E043E064E0BF
:102980008DE893E00E94030620E046E065E08EE6D5
:1029900093E00C940306DB018F939F930E94BC1D70
:1029A000BF91AF91A29F800D911DA39F900DB29FEB
:1029B000900D11240895AA1BBB1B51E107C0AA1F4B
:1029C000BB1FA617B70710F0A61BB70B881F991FD0
:1029D0005A95A9F780959095BC01CD01089597FB74
:1029E000072E16F4009407D077FD09D00E94DB145F
:1029F00007FC05D03EF4909581959F4F0895709502
:102A000061957F4F0895A1E21A2EAA1BBB1BFD0101
:102A10000DC0AA1FBB1FEE1FFF1FA217B307E407BD
:102A2000F50720F0A21BB30BE40BF50B661F771F15
:102A3000881F991F1A9469F76095709580959095F5
:102A40009B01AC01BD01CF010895EE0FFF1F059062
:102A5000F491E02D0994B7FF0C94BC1D0E94BC1D9D
:102A6000821B930B08955058BB27AA270E944B1531
:102A70000C94821D0E94741D38F00E947B1D20F072
:102A800039F49F3F19F426F40C94711D0EF4E0956F
:102A9000E7FB0C946B1DE92F0E94931D58F3BA17A6
:102AA000620773078407950720F079F4A6F50C9464
:102AB000B51D0EF4E0950B2EBA2FA02D0B01B90118
:102AC00090010C01CA01A0011124FF27591B99F0A4
:102AD000593F50F4503E68F11A16F040A22F232FB0
:102AE000342F4427585FF3CF469537952795A79500
:102AF000F0405395C9F77EF41F16BA0B620B730BA7
:102B0000840BBAF09150A1F0FF0FBB1F661F771F17
:102B1000881FC2F70EC0BA0F621F731F841F48F4CC
:102B2000879577956795B795F7959E3F08F0B0CF55
:102B30009395880F08F09927EE0F9795879508953C
:102B40000E94741D60F080E891E009F49EEF0E94FD
:102B50007B1D28F040E851E071F45EEF0CC00C944E
:102B6000711D0C94B51DE92FE0780E94931D40F370
:102B7000092E052AB1F3261737074807590738F0F9
:102B80000E2E07F8E02569F0E025E0640AC0EF6347
:102B900007F8009407FADB01B9019D01DC01CA01C5
:102BA000AD01EF930E942E160E94821D0E94E31534
:102BB0005F91552339F02BED3FE049E450FD49EC9E
:102BC0000C9434150895DF93DD27B92FBF7740E8C3
:102BD0005FE31616170648075B0718F4D92F0E9403
:102BE0002A179F938F937F936F930E948017EAEB2E
:102BF000F0E00E94BF160E94821D2F913F914F91DD
:102C00005F910E94111DDD2351F09058A2EA2AED38
:102C10003FE049EC5FE3D0785D270E944B15DF91E0
:102C20000C94821D0E94E816E3950C9411170E94E3
:102C30002B160C94821D0E947B1D58F00E94741D5F
:102C400040F029F45F3F29F00C946B1D51110C9456
:102C5000B61D0C94711D0E94931D68F39923B1F366
:102C6000552391F3951B550BBB27AA2762177307B2
:102C7000840738F09F5F5F4F220F331F441FAA1F46
:102C8000A9F335D00E2E3AF0E0E832D09150504002
:102C9000E695001CCAF72BD0FE2F29D0660F771FB0
:102CA000881FBB1F261737074807AB07B0E809F096
:102CB000BB0B802DBF01FF2793585F4F3AF09E3F1B
:102CC000510578F00C946B1D0C94B61D5F3FE4F336
:102CD000983ED4F3869577956795B795F7959F5F5E
:102CE000C9F7880F911D9695879597F90895E1E0AA
:102CF000660F771F881FBB1F621773078407BA0709
:102D000020F0621B730B840BBA0BEE1F88F7E09563
:102D100008950E9490166894B1110C94B61D089500
:102D20000E949B1D88F09F5798F0B92F9927B751A3
:102D3000B0F0E1F0660F771F881F991F1AF0BA955F
:102D4000C9F714C0B13091F00E94B51DB1E00895EB
:102D50000C94B51D672F782F8827B85F39F0B93FDD
:102D6000CCF3869577956795B395D9F73EF4909512
:102D70008095709561957F4F8F4F9F4F0895DF939A
:102D8000CF931F930F93FF92EF92DF927B018C0101
:102D9000689406C0DA2EEF010E94111DFE01E8942E
:102DA000A5912591359145915591A6F3EF010E948A
:102DB0004B15FE019701A801DA9469F7DF90EF90B7
:102DC000FF900F911F91CF91DF9108950C94711D89
:102DD0000E949B1DD8F3E894E0E0BB279F57F0F0DA
:102DE0002AED3FE049EC06C0EE0FBB0F661F771FD0
:102DF000881F28F0B23A62077307840728F0B25A96
:102E0000620B730B840BE3959A9572F7803830F45C
:102E10009A95BB0F661F771F881FD2F790480C94B6
:102E20008B17EF93E0FF07C0A2EA2AED3FE049ECE1
:102E30005FEB0E944B150E94821D0F90039401FCD2
:102E40009058E7EEF0E00C949E170E94DA1C08F40C
:102E50008FEF08959B01AC0160E070E080E89FE394
:102E60000C9417169F930E94E8160F9007FCEE5FD4
:102E70000C94111719F416F40C94711D0C94891705
:102E80000E949B1DB8F39923C9F3B6F39F57550BC6
:102E900087FF0E9497170024A0E640EA900180581F
:102EA0005695979528F4805C660F771F881F20F051
:102EB00026173707480730F4621B730B840B202951
:102EC00031294A2BA69517940794202531254A27A6
:102ED00058F7660F771F881F20F026173707480717
:102EE00030F4620B730B840B200D311D411DA09536
:102EF00081F7B901842F9158880F96958795089589
:102F00009B01AC010C94FE1C0E94DA1C880B990BEF
:102F100008959F3F31F0915020F4879577956795FC
:102F2000B795880F911D9695879597F908959150BB
:102F30005040660F771F881FD2F708959F938F9395
:102F40007F936F93FF93EF939B01AC010E94FE1C54
:102F5000EF91FF910E94BF162F913F914F915F918A
:102F60000C94FE1CCF93DF938230910510F482E025
:102F700090E0E0915B04F0915C0420E030E0C0E080
:102F8000D0E0309711F14081518148175907C0F0C6
:102F90004817590761F482819381209719F09B8328
:102FA0008A832BC090935C0480935B0426C0211518
:102FB000310519F04217530718F49A01BE01DF01D9
:102FC000EF010280F381E02DDCCF2115310509F1FD
:102FD000281B390B2430310590F412968D919C9169
:102FE00013976115710521F0FB019383828304C05F
:102FF00090935C0480935B04FD01329644C0FD0114
:10300000E20FF31F81939193225031092D933C934A
:103010003AC02091590430915A04232B41F4209155
:1030200002013091030130935A04209359042091F6
:103030000001309101012115310541F42DB73EB752
:103040004091040150910501241B350BE091590476
:10305000F0915A04E217F307A0F42E1B3F0B281738
:10306000390778F0AC014E5F5F4F2417350748F001
:103070004E0F5F1F50935A044093590481939193CC
:1030800002C0E0E0F0E0CF01DF91CF9108950F930F
:103090001F93CF93DF93009709F48CC0FC01329704
:1030A0001382128200915B0410915C0401151105DA
:1030B00081F420813181820F931F20915904309136
:1030C0005A042817390779F5F0935A04E093590404
:1030D00071C0D80140E050E0AE17BF0750F412961F
:1030E0002D913C911397AD012115310509F1D901BD
:1030F000F3CF9D01DA013383228360817181860FD2
:10310000971F8217930769F4EC0128813981260FF4
:10311000371F2E5F3F4F318320838A819B819383AA
:103120008283452B29F4F0935C04E0935B0442C056
:103130001396FC93EE931297ED01499159919E01DC
:10314000240F351FE217F30771F480819181840FFA
:10315000951F029611969C938E938281938113966C
:103160009C938E931297E0E0F0E0D80112968D9137
:103170009C911397009719F0F8018C01F6CF8D916F
:103180009C9198012E5F3F4F820F931F209159040D
:1031900030915A042817390769F4309729F41092AE
:1031A0005C0410925B0402C01382128210935A04D2
:1031B00000935904DF91CF911F910F910895A0E0E2
:1031C000B0E0E5EEF8E10C94CB1DEC01009721F4A2
:1031D000CB010E94B217B8C0FC01E60FF71F9C019B
:1031E00022503109E217F30708F4ACC0D9010D9160
:1031F0001C91119706171707B0F00530110508F458
:103200009FC0C80104978617970708F499C0025019
:103210001109061B170B019311936D937C93CF013A
:103220000E9447188DC05B01A01AB10A4C01800EA4
:10323000911EA0915B04B0915C0440E050E0E12C51
:10324000F12C109709F44AC0A815B905D1F56D9075
:103250007C901197630182E0C80ED11CCA14DB0474
:1032600080F1A3014A195B096A0182E0C80ED11CF2
:103270001296BC9012971396AC91B5E0CB16D10480
:1032800040F0B282A38351834083D9016D937C9334
:103290000AC00E5F1F4FC301800F911FF901918378
:1032A0008083EB2DFA2FE114F10431F0D70113964E
:1032B000FC93EE93129744C0F0935C04E0935B049C
:1032C0003FC08D919C9111974817590708F4AC01A4
:1032D0007D0112960D90BC91A02DB3CF8091590421
:1032E00090915A0488159905E1F446175707C8F4D8
:1032F0008091000190910101009741F48DB79EB734
:103300004091040150910501841B950BE817F907C2
:10331000C8F4F0935A04E0935904F901718360836F
:103320000FC0CB010E94B2177C01009759F0A80191
:10333000BE010E94AE19CE010E944718C70104C009
:10334000CE0102C080E090E0CDB7DEB7EEE00C9495
:10335000E71D81E090E0F8940C940D1EFB01DC0168
:1033600002C001900D9241505040D8F70895FB01E2
:10337000DC018D91019080190110D9F3990B08950A
:10338000FB01DC0101900D920020E1F70895FB01A3
:10339000DC014150504048F001900D920020C9F7E7
:1033A00001C01D9241505040E0F70895EF920F93F5
:1033B0001F93CF93DF93E80147FD02C034E001C0C3
:1033C00034E1E42F440FFF0BF7FF03C0F195E195C3
:1033D000F109E32E022F2E2FAE010E94321ACE01E8
:1033E000DF91CF911F910F91EF9008951F93FC01F2
:1033F00099278827BC01E89411911032E9F319301C
:1034000010F01E30C8F31B3251F01D3249F468949D
:1034100006C00E941D1A610F711D811D911D119121
:1034200010531A30B0F33EF49095809570956195E5
:103430007F4F8F4F9F4F1F910895592F482F372F40
:10344000262F660F771F881F991F660F771F881F0B
:10345000991F620F731F841F951F660F771F881FA8
:10346000991F08954F925F926F927F929F92AF92B1
:10347000BF92CF92DF92EF92FF920F931F93CF9361
:10348000DF93CDB7DEB729970FB6F894DEBF0FBE36
:10349000CDBF6A01122FB02E2BE3201720F0FF249E
:1034A000F394F00E02C0BCE3FB2E0F2D27E0AE011B
:1034B0004F5F5F4F0E94C01BAC018981982F9970AC
:1034C000913031F0E1FC06C0E0FE06C090E205C09C
:1034D0009DE203C09BE201C090E0EE2DE07183FF0E
:1034E0003CC0911102C083E001C084E0811718F450
:1034F000212F281B01C020E0E1110BC0F601822F13
:1035000030E2882319F031938150FBCFC20ED11CD9
:1035100020E0992329F0D6019C93F60131966F01A2
:10352000C6010396E2FE0AC03EE4D6013C9341E4A4
:1035300011964C93119712963C9306C03EE6F60105
:10354000308341E641833283FC01322F40E2332352
:1035500009F442C041933150FACF82FF44C0911127
:1035600002C083E001C084E0811718F4212F281BDA
:1035700001C020E0E1110BC0F601822F30E2882368
:1035800019F031938150FBCFC20ED11C20E099235A
:1035900029F0D6019C93F60131966F01C60103967E
:1035A000E2FE0BC039E4D6013C933EE411963C9315
:1035B000119736E412963C9307C039E6F601308342
:1035C0003EE6318336E63283FC01322F40E233237C
:1035D00019F041933150FBCFFC01E20FF11D108235
:1035E0008EEF9FEFB7C0F1E0911101C0F0E06F2FB7
:1035F00070E01416150624F49A012F5F3F4F02C0A5
:1036000021E030E0260F371FBB2029F06B2D70E042
:103610006F5F7F4F02C060E070E0260F371F612FA1
:1036200070E0261737071CF4121B212F01C020E081
:103630003E2D387159F4D601322F60E2332319F050
:103640006D933150FBCFC20ED11C20E0FF2331F02F
:10365000D6019C93B6016F5F7F4F6B01E1110BC0E8
:10366000F601922F30E3992319F031939150FBCF5B
:10367000C20ED11C20E09F2D940F3A81782F7071DB
:10368000A72E84FF03C0313309F49150191624F496
:10369000993018F098E001C091E0E42F852F57FF92
:1036A00002C0E0E080E06E2F782FE0E0F0E0AEE2D4
:1036B0009A2E3A01691A71082A01461A570A0B2DE7
:1036C00010E01195019511096F3F8FEF780729F4EC
:1036D000D6019C92C60101966C014617570784F0EB
:1036E000661677066CF47F01E40CF51CA1E0B0E0EF
:1036F000AC0FBD1FEA0EFB1ED7011196BC9002C095
:1037000090E3B92E615071093196C60101967C0192
:103710006017710724F0D601BC926C01D5CF6417F5
:10372000750741F4363320F4353321F4A11002C07B
:1037300081E3B82EF601B082F701822F90E2882350
:1037400019F091938150FBCFF701E20FF11D108228
:1037500080E090E029960FB6F894DEBF0FBECDBF93
:10376000DF91CF911F910F91FF90EF90DF90CF905D
:10377000BF90AF909F907F906F905F904F90089513
:10378000283008F027E03327DA01990F311D87FD33
:10379000916000966105710539F432602E5F3D93AA
:1037A00030E32A95E1F708959F3F30F080387105A6
:1037B000610509F03C5F3C5F3D93913008F0806803
:1037C000911DDF93CF931F930F93FF92EF92192FC9
:1037D000987F9695E92F96959695E90FFF27E254E5
:1037E000FE4F99273327EE24FF24A701E701059018
:1037F0000894079428F4360FE71EF81E491F511D40
:10380000660F771F881F991F0694A1F705900794EC
:1038100028F4E70EF81E491F561FC11D770F881F99
:10382000991F661F0694A1F70590079428F4F80ED7
:10383000491F561FC71FD11D880F991F661F771F6D
:103840000694A1F70590079420F4490F561FC71F4F
:10385000D81F990F661F771F881F0694A9F78491B8
:103860001095177041F0D695C79557954795F794E1
:10387000E7941A95C1F7E4E6F1E068941590159184
:1038800035916591959105907FE27395E118F10A64
:10389000430B560BC90BD009C0F7E10CF11E431FB7
:1038A000561FC91FD01D7EF4703311F48A95E6CFE0
:1038B000E894015030F0080F0AF40027021708F4CA
:1038C000202F2395022F7A3328F079E37D932A95D0
:1038D000E9F710C07D932A9589F606949795679528
:1038E000379517951794E118F10A430B560BC90B3E
:1038F000D00998F023957E9173957A3308F070E3A0
:103900007C932013B8F77E9170617D9330F083959E
:1039100071E37D9370E32A95E1F71124EF90FF9016
:103920000F911F91CF91DF91992787FD9095089571
:103930000E94DA1C08F481E00895E89409C097FB1E
:103940003EF490958095709561957F4F8F4F9F4F76
:103950009923A9F0F92F96E9BB279395F6958795BA
:1039600077956795B795F111F8CFFAF4BB0F11F47D
:1039700060FF1BC06F5F7F4F8F4F9F4F16C0882324
:1039800011F096E911C0772321F09EE8872F762F5A
:1039900005C0662371F096E8862F70E060E02AF09B
:1039A0009A95660F771F881FDAF7880F9695879587
:1039B00097F90895990F0008550FAA0BE0E8FEEF5C
:1039C00016161706E807F907C0F012161306E407E3
:1039D000F50798F0621B730B840B950B39F40A26DC
:1039E00061F0232B242B252B21F408950A2609F4BA
:1039F000A140A6958FEF811D811D08950E94111D84
:103A00000C94821D0E94741D38F00E947B1D20F0D2
:103A1000952311F00C946B1D0C94711D11240C94C2
:103A2000B61D0E94931D70F3959FC1F3950F50E052
:103A3000551F629FF001729FBB27F00DB11D639F60
:103A4000AA27F00DB11DAA1F649F6627B00DA11D06
:103A5000661F829F2227B00DA11D621F739FB00DAC
:103A6000A11D621F839FA00D611D221F749F33271C
:103A7000A00D611D231F849F600D211D822F762FB5
:103A80006A2F11249F5750409AF0F1F088234AF092
:103A9000EE0FFF1FBB1F661F771F881F91505040FE
:103AA000A9F79E3F510580F00C946B1D0C94B61D38
:103AB0005F3FE4F3983ED4F3869577956795B79585
:103AC000F795E7959F5FC1F7FE2B880F911D96959F
:103AD000879597F9089597F99F6780E870E060E00F
:103AE00008959FEF80EC089500240A941616170697
:103AF00018060906089500240A94121613061406DF
:103B000005060895092E0394000C11F4882352F041
:103B1000BB0F40F4BF2B11F460FF04C06F5F7F4FF9
:103B20008F4F9F4F089557FD9058440F551F59F0E0
:103B30005F3F71F04795880F97FB991F61F09F3F9A
:103B400079F087950895121613061406551FF2CFC3
:103B50004695F1DF08C0161617061806991FF1CF13
:103B600086957105610508940895E894BB2766273A
:103B70007727CB0197F908950E94FE1DA59F900D10
:103B8000B49F900DA49F800D911D112408952F9234
:103B90003F924F925F926F927F928F929F92AF92DD
:103BA000BF92CF92DF92EF92FF920F931F93CF932A
:103BB000DF93CDB7DEB7CA1BDB0B0FB6F894DEBFC1
:103BC0000FBECDBF09942A88398848885F846E84E7
:103BD0007D848C849B84AA84B984C884DF80EE8031
:103BE000FD800C811B81AA81B981CE0FD11D0FB63A
:103BF000F894DEBF0FBECDBFED010895A29FB001C6
:103C0000B39FC001A39F700D811D1124911DB29F10
:103C1000700D811D1124911D089511E0C0E3D1E0C4
:103C200004C0FE010E9425152196C133D107C9F7B2
:043C3000F894FFCF36
:103C340000005D04800000000000B8025C010C0379
:103C440024039F02B70200000000E0015C01A90107
:103C540087019B0127020000000045035C01450326
:103C64004503450345030000000045035C0147503C
:103C7400524D43004750474741006C6F63207661C3
:103C84006C6964006D617873706565642E76616C2F
:103C94003D00706167652032004C6F636174696F29
:103CA4006E2072656164792E0D0A00646973742E46
:103CB40076616C3D006C6F67312E7478743D003A08
:103CC4002020006C6F67322E7478743D00676F2E6D
:103CD4007069633D3700676F2E7069633D36007409
:103CE4003033302E7478743D00743036302E74784E
:103CF400743D0074303130302E7478743D0074306B
:103D04003230302E7478743D0074313030323030BB
:103D14002E7478743D00743430322E7478743D00FF
:103D240073703430322E76616C3D00666978696E4A
:103D3400672E2E2E20006E616E00696E66006F760F
:043D440066002E00E7
:00000001FF
